:020000040000FA
:0600000083EF01F0120085
:0A0006000100240300008000000048
:0400100036000000B6
:0C001400F00E946E959095929594440E19
:10002000D36E1200D9CFE6FFE1CFD9FF020EE12651
:10003000DE6ADD6ADECF02F0DDCF03F0D890035038
:1000400004E6280E025C000E035805E2DF2A010ECA
:1000500001E3DB2AEFD7020EE15C02E2E16AE5523E
:10006000E16EE552E7CFD9FF1200D9CFE6FFE1CF2D
:10007000D9FF020EE126DE6ADD6ADECF02F0DDCFB7
:1000800003F0D890035004E6640E025C050E03589A
:1000900005E2DF2A010E01E3DB2AEFD7020EE15C65
:1000A00002E2E16AE552E16EE552E7CFD9FF1200C4
:1000B0008C828C9212008C848C9412008C908B6AAF
:1000C000F7DFF9DF010E8B6EF3DF5BEF00F08AC024
:1000D000B6F08BC0B7F080C0B8F081C0B9F084C072
:1000E000BAF085C0BBF0A6C0BCF0A7C0BDF096C0FA
:1000F000BEF097C0BFF086C0C0F087C0C1F080C01E
:10010000C2F081C0C3F086C0C4F087C0C5F088C00B
:10011000C6F089C0C7F084C0C8F085C0C9F09CC0D3
:10012000CAF09DC0CBF096C0CCF097C0CDF096C081
:10013000CEF097C0CFF088C0D0F089C0D1F08CC08D
:10014000D2F08DC0D3F088C0D4F089C0D5F08DDF57
:100150008C90020E8B6EACDFAEDF020E8B6EA8DFD2
:10016000AADF080E8B6EA4DFA6DF5CDF8B6AA0DF40
:10017000A2DF0E0E8B6E9CDF9EDF54DF9FDF52DF0F
:100180008B6A96DF98DF060E8B6E92DF94DF12EF9C
:1001900000F0D9CFE6FFE1CFD9FF020EE126DE6AFB
:1001A000DD6ADECF02F0DDCF03F0D890035004E625
:1001B000700E025C170E035805E2DF2A010E01E300
:1001C000DB2AEFD7020EE15C02E2E16AE552E16E62
:1001D000E552E7CFD9FF1200D9CFE6FFE1CFD9FF33
:1001E000E652DF6A8C800001B451DF5C03E3B55155
:1001F000DF5C1BE2B451DF5C09E2DF50EA6AB60F54
:10020000E96E000EEA22EF508B6E52DF0001B5510D
:10021000DF5C09E2DF50EA6AC80FE96E000EEA22ED
:10022000EF508B6E48DFDF2ADED7E552E552E7CF8D
:10023000D9FF1200AEDF42DFC9EF00F0EBDE47DF8F
:08024000CBDFF8DFFDD712004F
:08024800060EF66E000EF76EC3
:10025000000EF86E00010900F550DB6F0900F55043
:10026000DC6F03E1DB6701D03DD00900F550D66FAC
:100270000900F550D76F0900F550D86F0900090043
:10028000F550E96E0900F550EA6E09000900090011
:10029000F550D96F0900F550DA6F09000900F6CF63
:1002A000DDF0F7CFDEF0F8CFDFF0D6C0F6FFD7C035
:1002B000F7FFD8C0F8FF0001D95302E1DA5307E095
:1002C0000900F550EE6ED907F8E2DA07F9D7DDC07C
:1002D000F6FFDEC0F7FFDFC0F8FF0001DB07000E0E
:0602E000DC5BBFD7120039
:0A02E600000EF36E00EE00F0060EAD
:1002F00001D81200EA6002D0EE6AFCD7F350E96040
:060300001200EE6AFCD7BA
:0A03060015EE00F025EE00F0F86A95
:10031000019C24EC01F091EC01F01EEC01F0FBD704
:020320001200C9
:020322001200C7
:0C032400040104020403040404050406A0
:10033000040704080409040A040B040C040D040E49
:10034000040F05010502050305040505050605075B
:0A0350000509050A050B050C120E45
:020000040030CA
:0100010008F6
:010003001EDE
:00000001FF
