:020000040000FA
:06000000D7EF01F0120031
:0A0006000100CC03000080000000A0
:0400100028000000C4
:0C001400F00E946E95909592440ED36E01
:100020001200D9CFE6FFE1CFD9FF040EE126DE6A48
:10003000DD6ADECF00F0DDCF01F0FD0EDBCF02F098
:10004000FE0EDBCF03F001500318E8AE02D00334FC
:1000500004D00250005C035001581DE2020EDB6A1E
:10006000030EDB6A020EDBCF00F0030EDBCF01F0E4
:10007000D890015004E60A0E005C000E015806E21A
:10008000020EDB2A030E01E3DB2AECD7DF2A010E86
:1000900001E3DB2ACED7040EE15C02E2E16AE5521D
:1000A000E16EE552E7CFD9FF1200D9CFE6FFE1CFED
:1000B000D9FF020EE126DE6ADD6ADECF00F0DDCF79
:1000C00001F0D890015004E6640E005C050E015862
:1000D00005E2DF2A010E01E3DB2AEFD7020EE15C25
:1000E00002E2E16AE552E16EE552E7CFD9FF120084
:1000F0008C828C92010EE66EE66A93DFE552E55241
:100100001200D9CFE6FFE1CFD9FF8C90FE0EDB5075
:100110008B6EEEDFE552E7CFD9FF1200D9CFE6FFB5
:10012000E1CFD9FF8C80FE0EDB508B6EE1DFE55214
:10013000E7CFD9FF12008C908B6ADADF010E8B6E4D
:10014000D7DF020EE66EE66A6CDFE552E55212007A
:10015000D9CFE6FFE1CFD9FFE652040EE66ED1DF3C
:10016000E552E66ACEDFE552DF6ADFCF00F0280E07
:10017000E76E0018E8AE02D0E73402D0E750005C2A
:100180001DE2DFCFE9FFEA6AE9BEEA68800EE926F0
:10019000000EEA22EF380F0BE66EC0DFE552DFCF2C
:1001A000E9FFEA6AE9BEEA68800EE926000EEA2263
:1001B000EF50E66EB3DFE552DF2AD7D7E552E552BE
:1001C000E7CFD9FF1200080EE66E9BDFE552E66A24
:1001D00098DFE552120069DF020EE66E92DFE5520B
:1001E000020EE66E8EDFE552080EE66E8ADFE552FD
:1001F000020EE66EE66A15DFE552E552E66A81DF39
:10020000E5520C0EE66E7DDFE552020EE66EE66A02
:1002100008DFE552E5528FDF020EE66EE66A01DF87
:10022000E552E552E66A6DDFE552060EE66E69DFDD
:10023000E552020EE66EE66AF4DEE552E55288DF2C
:10024000E3EF00F0D9CFE6FFE1CFD9FF0B0EE126B7
:10025000010EDB6A020EDB6A030EDB6A010EF36E2F
:10026000040EF3CFDBFF050EDB6A020EF36E060E03
:10027000F3CFDBFF070EDB6A030EF36E080EF3CF3E
:10028000DBFF090EDB6A040EF36E0A0EF3CFDBFF11
:10029000DF6A0A0EDF5C1DE2D950010F006EDACF73
:1002A00001F0DF500F010024E96E000E0120EA6E1C
:1002B000EF50E66E33DFE552DF50010B010807E136
:1002C000960EE66EE66AADDEE552E5527CDFDF2A89
:1002D000E0D70B0EE15C02E2E16AE552E16EE55225
:1002E000E7CFD9FF120096DE76DFACDFFED7120033
:1002F000060EF66E000EF76E000EF86E0001090095
:10030000F550AD6F0900F550AE6F03E1AD6701D058
:100310003DD00900F550A86F0900F550A96F0900FC
:10032000F550AA6F09000900F550E96E0900F55073
:10033000EA6E090009000900F550AB6F0900F5509D
:10034000AC6F09000900F6CFAFF0F7CFB0F0F8CFEF
:10035000B1F0A8C0F6FFA9C0F7FFAAC0F8FF0001DE
:10036000AB5302E1AC5307E00900F550EE6EAB076A
:10037000F8E2AC07F9D7AFC0F6FFB0C0F7FFB1C0E5
:0E038000F8FF0001AD07000EAE5BBFD7120004
:02038E00000E5F
:10039000F36E00EE00F0060E01D81200EA6002D003
:0E03A000EE6AFCD7F350E9601200EE6AFCD75B
:0203AE0015EE4A
:1003B00000F025EE00F0F86A059C78EC01F0E5EC21
:0A03C00001F073EC01F0FBD712000E
:0203CA0012001F
:0403CC000C040E15FA
:1003D000040A0A1B0C041F04040A11110C150E0454
:1003E000040A11110C041F04040A11110C040E1547
:0403F000040A0A1BD6
:020000040030CA
:0100010008F6
:010003001EDE
:00000001FF
