:020000040000FA
:06000000D1EF01F0120037
:0A0006000100C003000080000000AC
:0400100048000000A4
:0C001400F00E946E95909592440ED36E01
:100020001200D9CFE6FFE1CFD9FF040EE126DE6A48
:10003000DD6ADECF00F0DDCF01F0FD0EDBCF02F098
:10004000FE0EDBCF03F001500318E8AE02D00334FC
:1000500004D00250005C035001581DE2020EDB6A1E
:10006000030EDB6A020EDBCF00F0030EDBCF01F0E4
:10007000D890015004E60A0E005C000E015806E21A
:10008000020EDB2A030E01E3DB2AECD7DF2A010E86
:1000900001E3DB2ACED7040EE15C02E2E16AE5521D
:1000A000E16EE552E7CFD9FF1200D9CFE6FFE1CFED
:1000B000D9FF020EE126DE6ADD6ADECF00F0DDCF79
:1000C00001F0D890015004E6640E005C050E015862
:1000D00005E2DF2A010E01E3DB2AEFD7020EE15C25
:1000E00002E2E16AE552E16EE552E7CFD9FF120084
:1000F0008C828C92010EE66EE66A93DFE552E55241
:100100001200D9CFE6FFE1CFD9FF8C90FE0EDB5075
:100110008B6EEEDFE552E7CFD9FF1200D9CFE6FFB5
:10012000E1CFD9FF8C80FE0EDB508B6EE1DFE55214
:10013000E7CFD9FF1200E66AE4DFE552010EE66E72
:10014000E0DFE5521200D9CFE6FFE1CFD9FFE6525A
:10015000040EE66ED6DFE552E66AD3DFE552DF6ACB
:10016000DFCF00F0380EE76E0018E8AE02D0E734BB
:1001700002D0E750005C1DE2DFCFE9FFEA6AE9BE8A
:10018000EA68A80EE926000EEA22EF380F0BE66EA9
:10019000C5DFE552DFCFE9FFEA6AE9BEEA68A80EEB
:1001A000E926000EEA22EF50E66EB8DFE552DF2ABC
:1001B000D7D7E552E552E7CFD9FF1200080EE66E19
:1001C000A0DFE552E66A9DDFE55212006EDF020E07
:1001D000E66E97DFE552020EE66E93DFE552080EFB
:1001E000E66E8FDFE552020EE66EE66A1ADFE55232
:1001F000E552E66A86DFE5520C0EE66E82DFE552D6
:10020000020EE66EE66A0DDFE552E55294DF020E5D
:10021000E66EE66A06DFE552E552E66A72DFE5520F
:10022000060EE66E6EDFE552020EE66EE66AF9DE57
:10023000E552E55288DFDEEF00F0D9CFE6FFE1CFEF
:10024000D9FF090EE126010EDB6AF36E020EF3CF31
:10025000DBFFF36E030EF3CFDBFFF36E040EF3CF81
:10026000DBFFF36E050EF3CFDBFFF36E060EF3CF6D
:10027000DBFFF36E070EF3CFDBFFF36E080EF3CF59
:10028000DBFFDF6A040EDF5C1EE2010EDBCFE6FF60
:1002900045DFE552D950010F006EDACF01F0DF5093
:1002A0000F010024E96E000E0120EA6EEF50E66EA9
:1002B00035DFE552640EE66EE66AB3DEE552E552DE
:1002C0007DDFDF2ADFD7090EE15C02E2E16AE55259
:1002D000E16EE552E7CFD9FF12009CDE77DFADDF9C
:0402E000FED7120033
:0C02E400060EF66E000EF76E000EF86EAF
:1002F00000010900F550CD6F0900F550CE6F03E104
:10030000CD6701D03DD00900F550C86F0900F55008
:10031000C96F0900F550CA6F09000900F550E96E70
:100320000900F550EA6E090009000900F550CB6F8D
:100330000900F550CC6F09000900F6CFCFF0F7CFD8
:10034000D0F0F8CFD1F0C8C0F6FFC9C0F7FFCAC0DF
:10035000F8FF0001CB5302E1CC5307E00900F55050
:10036000EE6ECB07F8E2CC07F9D7CFC0F6FFD0C0CE
:10037000F7FFD1C0F8FF0001CD07000ECE5BBFD75D
:02038000120069
:0E038200000EF36E00EE00F0060E01D8120021
:10039000EA6002D0EE6AFCD7F350E9601200EE6A20
:0203A000FCD788
:0E03A20015EE00F025EE00F0F86A059C72ECF6
:0E03B00001F0DFEC01F06DEC01F0FBD7120064
:0203BE0012002B
:1003C0000C040E15040A0A1B0C041F04040A111164
:1003D0000C150E04040A11110C041F04040A111157
:1003E0000C040E15040A0A1B0C051E0408140A1B33
:1003F0000C041F04040A0A1B0C140F0402050A1B38
:080400000C041F04040A0A1B8E
:020000040030CA
:0100010008F6
:010003001EDE
:00000001FF
