:020000040000FA
:060000008CEF04F0120079
:0A0006000100360900008A00000026
:0400100005000000E7
:0C001400F00E946E959095929392939448
:1000200093969388938A938C938E440ED36E12008A
:10003000D9CFE6FFE1CFD9FF040EE126DE6ADD6A03
:10004000DECF00F0DDCF01F0FD0EDBCF02F0FE0EC3
:10005000DBCF03F001500318E8AE02D0033404D024
:100060000250005C035001581DE2020EDB6A030ED1
:10007000DB6A020EDBCF00F0030EDBCF01F0D8907D
:10008000015004E60A0E005C000E015806E2020E62
:10009000DB2A030E01E3DB2AECD7DF2A010E01E3A2
:1000A000DB2ACED7040EE15C02E2E16AE552E16EA2
:1000B000E552E7CFD9FF1200D9CFE6FFE1CFD9FF54
:1000C000020EE126DE6ADD6ADECF00F0DDCF01F050
:1000D000D890015004E6640E005C050E015805E25C
:1000E000DF2A010E01E3DB2AEFD7020EE15C02E218
:1000F000E16AE552E16EE552E7CFD9FF12008C824A
:100100008C92010EE66EE66A93DFE552E55212002C
:10011000D9CFE6FFE1CFD9FF8C90FE0EDB508B6E7E
:10012000EEDFE552E7CFD9FF1200D9CFE6FFE1CFEE
:10013000D9FF8C80FE0EDB508B6EE1DFE552E7CFFE
:10014000D9FF1200E66AE4DFE552010EE66EE0DF59
:10015000E5521200B1DF020EE66EDADFE552020E62
:10016000E66ED6DFE552080EE66ED2DFE552020EED
:10017000E66EE66A5DDFE552E552E66AC9DFE55202
:100180000E0EE66EC5DFE552020EE66EE66A50DF41
:10019000E552E552D7DF020EE66EE66A49DFE55228
:1001A000E552E66AB5DFE552060EE66EB1DFE552CE
:1001B000020EE66EE66A3CDFE552E5521200D9CF48
:1001C000E6FFE1CFD9FFE652DF6ADF50006E016A39
:1001D000FB0EDBCF02F0FC0EDBCF03F00150031867
:1001E000E8AE02D0033404D00250005C0350015842
:1001F00023E2DF50E76EFD0EDBCFE9FFFE0EDBCF23
:10020000EAFFE750E926000EEA22EF380F0BE66E10
:100210008CDFE552DF50E76EFD0EDBCFE9FFFE0E0F
:10022000DBCFEAFFE750E926000EEA22EF50E66E48
:100230007CDFE552DF2AC9D7E552E552E7CFD9FF87
:100240001200D9CFE6FFE1CFD9FF0F0EE126C80E8D
:10025000DF6E310EF36E030EF3CFDBFF320EF36E63
:10026000040EF3CFDBFF330EF36E050EF3CFDBFF8F
:10027000340EF36E060EF3CFDBFF350EF36E070E72
:10028000F3CFDBFF360EF36E080EF3CFDBFF370E36
:10029000F36E090EF3CFDBFF380EF36E0A0EF3CFC9
:1002A000DBFF390EF36E0B0EF3CFDBFFC80EF36EE0
:1002B0000C0EF3CFDBFF300EF36E0D0EF3CFDBFF32
:1002C000C80EF36E0E0EF3CFDBFF010EDB6A040ED9
:1002D000F36E010EDBCFF4FFF350F45C6FE2010E1E
:1002E000DB50020A10E0030A0AE0010A04E08A82F5
:1002F0008A848A860CD08A848A868A9208D08A82E6
:100300008A868A9404D08A828A848A9600D0010ED2
:10031000DB50030801E24FD081B812D081A8FED78C
:10032000D950030F006EDACF01F0010EDB500F0140
:100330000024E96E000E0120EA6EEF5041D03BD060
:1003400081BA12D081AAFED7D950060F006EDACF3B
:1003500001F0010EDB500F010024E96E000E0120B8
:10036000EA6EEF502DD027D081BC12D081ACFED7E1
:10037000D950090F006EDACF01F0010EDB500F01EA
:100380000024E96E000E0120EA6EEF5019D013D060
:1003900081BE11D081AEFED7D9500C0F006EDACFDE
:1003A00001F0010EDB500F010024E96E000E012068
:1003B000EA6EEF5005D0010EDB2A89D7DF5000D05E
:1003C000006E0F0EE15C02E2E16AE552E16E005060
:1003D000E552E7CFD9FF1200D9CFE6FFE1CFD9FF31
:1003E000160EE1264F0EDF6EDE524C0EDD6E410E14
:1003F000F36E020EF3CFDBFF2C0EF36E030EF3CF82
:10040000DBFF200EF36E040EF3CFDBFF4A0EF36E1C
:10041000050EF3CFDBFF4F0EF36E060EF3CFDBFFBF
:10042000520EF36E070EF3CFDBFF470EF36E080E8E
:10043000F3CFDBFF450EF36E090EF3CFDBFF210E8A
:10044000F36E0A0EF3CFDBFF530EF36E0B0EF3CFFA
:10045000DBFF450EF36E0C0EF3CFDBFF4E0EF36E9B
:100460000D0EF3CFDBFF480EF36E0E0EF3CFDBFF66
:10047000410EF36E0F0EF3CFDBFF3A0EF36E100E4C
:10048000F3CFDBFF200EF36E110EF3CFDBFF200E58
:10049000F36E120EF3CFDBFF200EF36E130EF3CFCD
:1004A000DBFF200EF36E140EF3CFDBFF200EF36E96
:1004B000150EF3CFDBFF46DE0B0EE66EE66AD9CFF4
:1004C000E6FFDACFE6FF7BDEE552E552E552E55284
:1004D0000C0EE66E1DDEE552E66A1ADEE552070EE8
:1004E000E66EE66AD9500B0FE66E000EDA20E66E75
:1004F00066DEE552E552E552E552160EE15C02E297
:10050000E16AE552E16EE552E7CFD9FF1200D9CF9B
:10051000E6FFE1CFD9FF200EE126530EDF6EDE525B
:10052000450EDD6E4E0EF36E020EF3CFDBFF480E6E
:10053000F36E030EF3CFDBFF410EF36E040EF3CF29
:10054000DBFF200EF36E050EF3CFDBFF490EF36EDB
:10055000060EF3CFDBFF4E0EF36E070EF3CFDBFF7D
:10056000430EF36E080EF3CFDBFF4F0EF36E090E52
:10057000F3CFDBFF520EF36E0A0EF3CFDBFF520E0A
:10058000F36E0B0EF3CFDBFF450EF36E0C0EF3CFC5
:10059000DBFF540EF36E0D0EF3CFDBFF410EF36E57
:1005A0000E0EF3CFDBFF210EF36E0F0EF3CFDBFF4A
:1005B000540EF36E100EF3CFDBFF450EF36E110EEB
:1005C000F3CFDBFF4E0EF36E120EF3CFDBFF540EB4
:1005D000F36E130EF3CFDBFF450EF36E140EF3CF65
:1005E000DBFF200EF36E150EF3CFDBFF4E0EF36E26
:1005F000160EF3CFDBFF4F0EF36E170EF3CFDBFFBC
:10060000560EF36E180EF3CFDBFF410EF36E190E8C
:10061000F3CFDBFF4D0EF36E1A0EF3CFDBFF450E6B
:10062000F36E1B0EF3CFDBFF4E0EF36E1C0EF3CFFB
:10063000DBFF540EF36E1D0EF3CFDBFF450EF36EA2
:100640001E0EF3CFDBFF210EF36E1F0EF3CFDBFF89
:1006500079DD100EE66EE66AD9CFE6FFDACFE6FF67
:10066000AEDDE552E552E552E5520C0EE66E50DD88
:10067000E552E66A4DDDE552100EE66EE66AD950A7
:10068000100FE66E000EDA20E66E99DDE552E552B7
:10069000E552E552200EE15C02E2E16AE552E16ECC
:1006A000E552E7CFD9FF1200D9CFE6FFE1CFD9FF5E
:1006B0000F0EE126530EDF6EDE52450EDD6E4A0E42
:1006C000F36E020EF3CFDBFF410EF36E030EF3CF9A
:1006D000DBFF200EF36E040EF3CFDBFF420EF36E52
:1006E000050EF3CFDBFF450EF36E060EF3CFDBFFF7
:1006F0004D0EF36E070EF3CFDBFF200EF36E080EE8
:10070000F3CFDBFF560EF36E090EF3CFDBFF490E7E
:10071000F36E0A0EF3CFDBFF4E0EF36E0B0EF3CF2C
:10072000DBFF440EF36E0C0EF3CFDBFF4F0EF36EC8
:100730000D0EF3CFDBFF210EF36E0E0EF3CFDBFFBA
:1007400001DD0F0EE66EE66AD9CFE6FFDACFE6FFEF
:1007500036DDE552E552E552E552FFD70F0EE15C7A
:1007600002E2E16AE552E16EE552E7CFD9FF1200FD
:10077000D9CFE6FFE1CFD9FF020EE126010EDB6AF9
:10078000040EF36E010EDBCFF4FFF350F45C1EE2B7
:1007900058DDDF6EDF50006E016AC80E001801E1FF
:1007A000015013E0020EE66EC0DCE5522A0EE66E42
:1007B000BCDCE552010EDB50EA6A8F0FE96E000ED9
:1007C000EA22DFCFEFFF010EDB2ADAD7010EDB6A68
:1007D000040EF36E010EDBCFF4FFF350F45C18E26D
:1007E000010EDB50EA6A8F0FE96E000EEA22EFCFAE
:1007F00000F0010EDB50EA6A8B0FE96E000EEA2270
:10080000EF50005C02E0000E05D0010EDB2AE0D7BD
:10081000010E00D0006E020EE15C02E2E16AE552D8
:10082000E16E0050E552E7CFD9FF12000AEC00F06C
:1008300091DCD2DD9DDF00018A6F8A5102E00BD08E
:1008400009D065DE880EE66E130EE66E18EC00F039
:0A085000E552E552EED754EF03F035
:06085A00060EF66E000E12
:10086000F76E000EF86E00010900F550856F090063
:10087000F550866F03E1856701D03DD00900F55042
:10088000806F0900F550816F0900F550826F0900F3
:100890000900F550E96E0900F550EA6E09000900FB
:1008A0000900F550836F0900F550846F09000900B5
:1008B000F6CF87F0F7CF88F0F8CF89F080C0F6FF49
:1008C00081C0F7FF82C0F8FF0001835302E1845327
:1008D00007E00900F550EE6E8307F8E28407F9D7C8
:1008E00087C0F6FF88C0F7FF89C0F8FF00018507C1
:0808F000000E865BBFD7120069
:0808F800000EF36E00EE00F0AB
:10090000060E01D81200EA6002D0EE6AFCD7F3505E
:08091000E9601200EE6AFCD759
:0809180015EE00F025EE00F0E1
:10092000F86A059C2DEC04F09AEC04F016EC04F047
:04093000FBD71200DF
:020934001200AF
:050936000031323334F2
:020000040030CA
:0100010008F6
:010003001EDE
:010005008179
:00000001FF
