:020000040000FA
:06000000DDEF00F012002C
:020006000000F8
:08000800440ED36E9580946A4A
:1000100012008B6A00018A6B120000018A51026E85
:10002000036A033404E202509908000E035403E308
:100030000A0E8A5D02E2EE0E8A6F8AC08BFF8A6B1F
:100040001200D9CFE6FFE1CFD9FF060EE12683509B
:10005000010BDF6E010EDB6A020EDB6A030EDB6A48
:10006000040EDB6A050EDB6AD950020FE96EDACFA7
:10007000EAFFC60EEE5C5A0EEE58000EEE58000E69
:10008000EE582DE200018A51026E036A033404E245
:1000900002509908000E035401E221D08350010B55
:1000A000DF5C12E08350010BDF6E010EDB2ADB50B8
:1000B00002080AE1070E8A250F0B03E1070E8A27C3
:1000C00001D08A2B010EDB6AD950020FE96EDACF1C
:1000D000EAFFEE2A000EEE22EE22EE22C5D7060E31
:1000E000E15C02E2E16AE552E16EE552E7CFD9FF59
:0C00F00012008ADFA6DF91DFFDD71200AE
:0400FC00060EF66E88
:10010000000EF76E000EF86E00010900F550856FC5
:100110000900F550866F03E1856701D03DD00900E5
:10012000F550806F0900F550816F0900F550826F1E
:1001300009000900F550E96E0900F550EA6E090062
:1001400009000900F550836F0900F550846F09001C
:100150000900F6CF87F0F7CF88F0F8CF89F080C09C
:10016000F6FF81C0F7FF82C0F8FF0001835302E170
:10017000845307E00900F550EE6E8307F8E2840728
:10018000F9D787C0F6FF88C0F7FF89C0F8FF0001E4
:0A0190008507000E865BBFD7120042
:06019A00000EF36E00EE02
:1001A00000F0060E01D81200EA6002D0EE6AFCD719
:0A01B000F350E9601200EE6AFCD77C
:0601BA0015EE00F025EE39
:1001C00000F0F86A019C7EEC00F0EBEC00F079ECBA
:0601D00000F0FBD7120055
:0201D600120015
:020000040030CA
:010003001EDE
:00000001FF
