:020000040000FA
:0600000021EF06F01200E2
:0A0006000100600C00008000000003
:0400100025000000C7
:0C001400800E946EC00E926E9590959236
:10002000959495969588958A958C958E770ED36E36
:1000300012000001A56BA66BA76BA86BA96BAA6B3E
:10004000AB6BAC6B140EAD6FAE6BAF6BB06B8C80EB
:100050008C828C84A4C08BFF3F0E896E1200D9CF96
:10006000E6FFE1CFD9FF090EE126010EF36E020E85
:10007000F3CFDBFFE8680001801908E1E868811927
:1000800005E1E868821902E1E868831906E10A0ED1
:10009000106E116A126A136A08D080C010F081C015
:1000A00011F082C012F083C013F0030E10C0DBFF0A
:1000B000E868841908E1E868851905E1E8688619A7
:1000C00002E1E868871906E10A0E106E116A126AE9
:1000D000136A08D084C010F085C011F086C012F0F9
:1000E00087C013F0040E10C0DBFFE868881908E130
:1000F000E868891905E1E8688A1902E1E8688B195E
:1001000006E10A0E106E116A126A136A08D088C0DE
:1001100010F089C011F08AC012F08BC013F0050EE8
:1001200010C0DBFFE8688C1908E1E8688D1905E16B
:10013000E8688E1902E1E8688F1906E10A0E106E70
:10014000116A126A136A08D08CC010F08DC011F0C9
:100150008EC012F08FC013F0060E10C0DBFFE868EF
:10016000901908E1E868911905E1E868921902E13F
:10017000E868931906E10A0E106E116A126A136A92
:1001800008D090C010F091C011F092C012F093C04E
:1001900013F0070E10C0DBFFE868941908E1E86867
:1001A000951905E1E868961902E1E868971906E1F2
:1001B0000A0E106E116A126A136A1AD0FE0E941992
:1001C00008E1E868951905E1E868961902E1E86830
:1001D000971906E10B0E106E116A126A136A08D0A5
:1001E00094C010F095C011F096C012F097C013F0B3
:1001F000080E10C0DBFFDE6ADD6ADECF10F0DDCF57
:1002000011F0060E105C000E115825E2896AD950D3
:10021000030F106EDACF11F0DE501024E96EDD50BE
:100220001120EA6EEFCFE9FFEA6AE9BEEA68990EAB
:10023000E926000EEA22EF508B6E020EDB50896E2B
:10024000020EDB50020D020EF3CFDBFFDF2A010EA0
:1002500001E3DB2AD2D7090EE15C02E2E16AE55252
:10026000E16EE552E7CFD9FF1200D9CFE6FFE1CF2B
:10027000D9FF120EE126130EDF6E070EF36E020E8B
:10028000F3CFDBFF080EF36E030EF3CFDBFF090E97
:10029000F36E040EF3CFDBFF170EF36E050EF3CFF4
:1002A000DBFF040EF36E060EF3CFDBFF050EF36EDD
:1002B000070EF3CFDBFF060EF36E080EF3CFDBFF66
:1002C000160EF36E090EF3CFDBFF010EF36E0A0E6E
:1002D000F3CFDBFF020EF36E0B0EF3CFDBFF030E4B
:1002E000F36E0C0EF3CFDBFF150EF36E0D0EF3CF96
:1002F000DBFF0E0EDB680F0EDB6A140EF36E100EC2
:10030000F3CFDBFF180EF36E110EF3CFDBFF010E00
:10031000DB6ADBCF10F0050EE76E1018E8AE02D0F6
:10032000E73402D0E750105C01E39BD098DE010E69
:10033000DB50030A1AE0010A13E0030A0CE0010A89
:1003400005E08C808C828C848C8614D08C908C827E
:100350008C848C860FD08C808C928C848C860AD076
:100360008C808C828C948C8605D08C808C828C8442
:100370008C9600D0010EDB50040801E16FD083B8E9
:100380001AD083B802D06BDEFCD70001986BD9502D
:10039000020F106EDACF11F0010EDBCF12F0136AEC
:1003A00012BE136810501224E96E11501320EA6E29
:1003B000EF5059D053D083BA1AD083BA02D04FDE4F
:1003C000FCD70001986BD950060F106EDACF11F0F0
:1003D000010EDBCF12F0136A12BE13681050122404
:1003E000E96E11501320EA6EEF503DD037D083BC38
:1003F0001AD083BC02D033DEFCD70001986BD950F1
:100400000A0F106EDACF11F0010EDBCF12F0136A73
:1004100012BE136810501224E96E11501320EA6EB8
:10042000EF5021D01BD083BE19D083BE02D017DE7F
:10043000FCD70001986BD9500E0F106EDACF11F077
:10044000010EDBCF12F0136A12BE13681050122493
:10045000E96E11501320EA6EEF5005D0010EDB2A31
:1004600058D7DF5000D0106E120EE15C02E2E16A54
:10047000E552E16E1050E552E7CFD9FF1200D9CF17
:10048000E6FFE1CFD9FF070EE126010EDB6A00018E
:10049000985101E0A9D0010EDB5009E1A5C010F090
:1004A000A6C011F0A7C012F0A8C013F008D0A9C0D0
:1004B00010F0AAC011F0ABC012F0ACC013F0030EE4
:1004C00010C0DBFF040E11C0DBFF050E12C0DBFF06
:1004D000060E13C0DBFF050EF36E020EF3CFDBFF3B
:1004E000DBCF10F0103401E37FD0B9DD030EDBCF9A
:1004F00014F0040EDBCF15F0050EDBCF16F0060E60
:10050000DBCF17F0145015101610171004E1020E6F
:10051000DB50050802E1000E01D0010E000905E0E4
:10052000106811681268136823D0030EDBCF10F037
:10053000040EDBCF11F0050EDBCF12F0060EDBCF81
:1005400013F00A0E0B6E0C6A0D6A0E6A10C006F0EC
:1005500011C007F012C008F013C009F0B9EC05F0A3
:1005600002C010F003C011F004C012F005C013F077
:10057000020EDBCFE9FFEA6AE9BEEA68D890E93605
:10058000EA36D890E936EA36800EE926000EEA22ED
:1005900010C0EEFF11C0EEFF12C0EEFF13C0EEFF61
:1005A0005EDD030EDBCF06F0040EDBCF07F0050E99
:1005B000DBCF08F0060EDBCF09F00A0E0B6E0C6ADB
:1005C0000D6A0E6AB9EC05F0030E06C0DBFF040EDF
:1005D00007C0DBFF050E08C0DBFF060E09C0DBFF0E
:1005E0003EDD020EDB067CD740DEDF6E38DD130E0B
:1005F000DF5C01E1B3D0140EDF5C14E1010EDB041B
:1006000010E12DDD0001010E986F170E0001AD19EC
:1006100001E0A6D0AE5101E0A3D0AF5101E0A0D0DF
:100620009ED09CD0DFCF10F0140EE76E1018E8AE0D
:1006300002D0103403D0E750D880105412E2010EDB
:10064000DB500EE1DFCFADF00001AE6BAF6BB06BF6
:10065000ADAF03D0AE69AF69B069DE52010EDD6E99
:100660007DD0010EDB503CE1D8900001A851000A7A
:1006700008E6A00EA55D860EA659010EA759000E2C
:10068000A8592EE2DFCF10F0116A126A136A10AE79
:1006900003D0116812681368A5C006F0A6C007F061
:1006A000A7C008F0A8C009F00A0E0B6E0C6A0D6A0C
:1006B0000E6A81EC05F00250000110240001A56FC4
:1006C0000350000111200001A66F04500001122008
:1006D0000001A76F0550000113200001A86F3ED054
:1006E000010EDB043BE1D8900001AC51000A08E6A2
:1006F000A00EA95D860EAA59010EAB59000EAC5989
:100700002DE2DFCF10F0116A126A136A10AE03D027
:10071000116812681368A9C006F0AAC007F0ABC040
:1007200008F0ACC009F00A0E0B6E0C6A0D6A0E6A76
:1007300081EC05F00250000110240001A96F035064
:10074000000111200001AA6F0450000112200001D5
:10075000AB6F0550000113200001AC6F98D6B0516B
:1007600001E182D0160EAD1905E1AE5103E1AF51A2
:1007700001E1B0515AE0150EAD1905E1AE5103E1AA
:10078000AF5101E1B05127E0180EAD1905E1AE51AE
:1007900003E1AF5101E1B05101E085D0A90EE96E4E
:1007A000000EEA6EA551EE24106EA651EE20116ED9
:1007B000A751EE20126EA851EE20136E030E10C04A
:1007C000DBFF040E11C0DBFF050E12C0DBFF060EBF
:1007D00013C0DBFF69D0030EA5C0DBFF040EA6C06B
:1007E000DBFF050EA7C0DBFF060EA8C0DBFFD9505C
:1007F000030FE96EDACFEAFFA951EE5C106EAA5141
:10080000EE58116EAB51EE58126EAC51EE58136E9D
:10081000030E10C0DBFF040E11C0DBFF050E12C07B
:10082000DBFF060E13C0DBFF3FD0A5C006F0A6C05D
:1008300007F0A7C008F0A8C009F0A9C00BF0AAC033
:100840000CF0ABC00DF0ACC00EF081EC05F0030E67
:1008500002C0DBFF040E03C0DBFF050E04C0DBFF9C
:10086000060E05C0DBFF20D0A5C006F0A6C007F02D
:10087000A7C008F0A8C009F0A9C00BF0AAC00CF0EE
:10088000ABC00DF0ACC00EF0B9EC05F0030E06C025
:10089000DBFF040E07C0DBFF050E08C0DBFF060E02
:1008A00009C0DBFF01D000D00001A56BA66BA76BD0
:1008B000A86BA96BAA6BAB6BAC6BD950030FE96E3D
:1008C000DACFEAFFD890030EEB50000A08E6000EDC
:1008D000EE5C000EEE58000EEE58000EEE581AE3D5
:1008E000030EDBCF07F0040EDBCF08F0050EDBCFE5
:1008F00009F0060EDBCF0AF00A34000E0A1809E6EA
:10090000D8803F0E0754420E08540F0E0954000EB3
:100910000A540BE2FE0EF36E030EF3CFDBFF040E60
:10092000DB68050EDB68060EDB68050EF36E020E53
:10093000F3CFDBFFDBCF10F0103401E382D02FECDC
:1009400000F0030EDBCF14F0040EDBCF15F0050E24
:10095000DBCF16F0060EDBCF17F014501510161073
:10096000171004E1020EDB50050802E1000E01D071
:10097000010E000905E0106811681268136823D0A1
:10098000030EDBCF10F0040EDBCF11F0050EDBCF32
:1009900012F0060EDBCF13F00A0E0B6E0C6A0D6A16
:1009A0000E6A10C006F011C007F012C008F013C0A4
:1009B00009F0B9EC05F002C010F003C011F004C05A
:1009C00012F005C013F0020EDBCFE9FFEA6AE9BEC0
:1009D000EA68D890E936EA36D890E936EA36800EE9
:1009E000E926000EEA2210C0EEFF11C0EEFF12C091
:1009F000EEFF13C0EEFF2FEC00F0030EDBCF06F08E
:100A0000040EDBCF07F0050EDBCF08F0060EDBCFC0
:100A100009F00A0E0B6E0C6A0D6A0E6AB9EC05F04D
:100A2000030E06C0DBFF040E07C0DBFF050E08C087
:100A3000DBFF060E09C0DBFF2FEC00F0020EDB0629
:100A400079D7070EE15C02E2E16AE552E16EE55218
:100A5000E7CFD9FF12000AEC00F019EC00F00FDD2F
:040A6000FED71200AB
:0C0A6400060EF66E000EF76E000EF86E27
:100A700000010900F550B66F0900F550B76F03E1AA
:100A8000B66701D03DD00900F550B16F0900F550AF
:100A9000B26F0900F550B36F09000900F550E96E17
:100AA0000900F550EA6E090009000900F550B46F1D
:100AB0000900F550B56F09000900F6CFB8F0F7CF7F
:100AC000B9F0F8CFBAF0B1C0F6FFB2C0F7FFB3C0CB
:100AD000F8FF0001B45302E1B55307E00900F550F7
:100AE000EE6EB407F8E2B507F9D7B8C0F6FFB9C0A3
:100AF000F7FFBAC0F8FF0001B607000EB75BBFD71B
:020B00001200E1
:0E0B020006500B02F3CF02F0F4CF03F00C020A
:100B1000F3500326000EF420046E06500D02F3502D
:100B20000426000EF420056E06500E02F350052632
:100B300007500B02F3500326F4500422000E052246
:100B400007500C02F3500426F450052207500D0202
:100B5000F350052608500B02F3500426F4500522EA
:100B600008500C02F350052609500B02F3500526DD
:020B7000120071
:0E0B7200006AE86A0EAEC6EF05F00B6C0C1EB2
:100B80000D1E0E1E0C220D220E22001E09AED1EFEC
:100B900005F0066C071E081E091E072208220922FE
:100BA000001EEDEC05F009BEE8EF05F000AE000C0C
:100BB000066C071E081E091EE86A07220822092281
:100BC000026C031E041E051E032204220522000CD3
:0A0BD00000BED8EF05F00188FF0C0D
:060BDA00056A046A036ACB
:100BE000026A200EE76ED8900636073608360936B8
:100BF00002360336043605360B50025C0C5003589F
:100C00000D5004580E50055809E30B50025E0C506D
:100C1000035A0D50045A0E50055A062AE72EE4D7FF
:020C20001200C0
:0E0C2200000EF36E00EE00F0060E01D8120078
:100C3000EA6002D0EE6AFCD7F350E9601200EE6A77
:020C4000FCD7DF
:0E0C420015EE00F025EE00F0F86A019C32EC91
:0E0C500005F02FEC06F02BEC05F0FBD71200A0
:020C5E00120082
:100C6000FFFFFFFFFFFFFFFFFFFFFFFFFFFFFFFF94
:100C7000FFFFFFFFFFFFFFFF00014F12064C242084
:050C80000F00047F30AD
:020000040030CA
:0100010008F6
:010003001EDE
:00000001FF
