:020000040000FA
:0600000034EF01F01200D4
:0A00060001008602000080000000E7
:0400100018000000D4
:0C001400F00E946E95909592440ED36E01
:100020001200D9CFE6FFE1CFD9FF020EE126DE6A4A
:10003000DD6ADECF02F0DDCF03F0D890035004E696
:10004000280E025C000E035805E2DF2A010E01E3D0
:10005000DB2AEFD7020EE15C02E2E16AE552E16ED3
:10006000E552E7CFD9FF1200D9CFE6FFE1CFD9FFA4
:10007000020EE126DE6ADD6ADECF02F0DDCF03F09C
:10008000D890035004E6640E025C050E035805E2A6
:10009000DF2A010E01E3DB2AEFD7020EE15C02E268
:1000A000E16AE552E16EE552E7CFD9FF1200D9CF00
:1000B000E6FFE1CFD9FF020EE126DE6ADD6ADECF80
:1000C00002F0DDCF03F0D890035004E6100E025C7E
:1000D000270E035805E2DF2A010E01E3DB2AEFD7E2
:1000E000020EE15C02E2E16AE552E16EE552E7CF21
:1000F000D9FF12008C828C9212008C908B6AFADFEE
:10010000010E8B6EF7DF11EF00F0AEDF8C90020E68
:100110008B6EF0DF020E8B6EEDDF080E8B6EEADF6A
:1001200080DF8B6AE7DF0E0E8B6EE4DF7ADFE5DFC0
:100130008B6AE0DF060E8B6EDDDF11EF00F0120040
:10014000D9CFE6FFE1CFD9FF020EE126DE6ADD6AF4
:1001500061DFDBDF8C80DECFE9FFDDCFEAFF800EE1
:10016000E926000EEA22EF508B6EC4DF7DDFDF2A26
:10017000010E01E3DB2ADECF02F0DDCF03F0033412
:1001800004E202501708000E035404E2B6DF6CDFED
:10019000DE6ADD6ADFD7020EE15C02E2E16AE55267
:0A01A000E16EE552E7CFD9FF12002F
:0601AA00060EF66E000EC9
:1001B000F76E000EF86E00010900F5509D6F090002
:1001C000F5509E6F03E19D6701D03DD00900F550C9
:1001D000986F0900F550996F0900F5509A6F090062
:1001E0000900F550E96E0900F550EA6E09000900B2
:1001F0000900F5509B6F0900F5509C6F090009003C
:10020000F6CF9FF0F7CFA0F0F8CFA1F098C0F6FF9F
:1002100099C0F7FF9AC0F8FF00019B5302E19C537D
:1002200007E00900F550EE6E9B07F8E29C07F9D74E
:100230009FC0F6FFA0C0F7FFA1C0F8FF00019D0717
:08024000000E9E5BBFD7120007
:08024800000EF36E00EE00F061
:10025000060E01D81200EA6002D0EE6AFCD7F35015
:08026000E9601200EE6AFCD710
:0802680015EE00F025EE00F098
:10027000F86A019CD5EC00F042EC01F0A0EC00F033
:04028000FBD7120096
:02028400120066
:0A028600040A040F05020407040532
:0E0290000002040A0505040E0409040F05020D
:020000040030CA
:0100010008F6
:010003001EDE
:00000001FF
