:020000040000FA
:0600000074EF01F0120094
:0A0006000100060300008000000066
:040010000C000000E0
:0C001400F00E946E95909592440ED36E01
:100020001200D9CFE6FFE1CFD9FF040EE126DE6A48
:10003000DD6ADECF00F0DDCF01F0FD0EDBCF02F098
:10004000FE0EDBCF03F001500318E8AE02D00334FC
:1000500004D00250005C035001581DE2020EDB6A1E
:10006000030EDB6A020EDBCF00F0030EDBCF01F0E4
:10007000D890015004E60A0E005C000E015806E21A
:10008000020EDB2A030E01E3DB2AECD7DF2A010E86
:1000900001E3DB2ACED7040EE15C02E2E16AE5521D
:1000A000E16EE552E7CFD9FF1200D9CFE6FFE1CFED
:1000B000D9FF020EE126DE6ADD6ADECF00F0DDCF79
:1000C00001F0D890015004E6640E005C050E015862
:1000D00005E2DF2A010E01E3DB2AEFD7020EE15C25
:1000E00002E2E16AE552E16EE552E7CFD9FF120084
:1000F0008C828C92010EE66EE66A93DFE552E55241
:100100001200D9CFE6FFE1CFD9FF8C90FE0EDB5075
:100110008B6EEEDFE552E7CFD9FF1200D9CFE6FFB5
:10012000E1CFD9FF8C80FE0EDB508B6EE1DFE55214
:10013000E7CFD9FF12008C908B6ADADF010E8B6E4D
:10014000D7DF020EE66EE66A6CDFE552E55212007A
:10015000ACDF020EE66ED5DFE552020EE66ED1DFB1
:10016000E552080EE66ECDDFE552020EE66EE66A57
:1001700058DFE552E552E66AC4DFE5520E0EE66E40
:10018000C0DFE552020EE66EE66A4BDFE552E5524D
:10019000D2DF020EE66EE66A44DFE552E552E66A19
:1001A000B0DFE552060EE66EACDFE552020EE66EFB
:1001B000E66A37DFE552E5521200D9CFE6FFE1CF1C
:1001C000D9FFE652DF6A0C0EDF5C1DE2DF50EA6AFF
:1001D000800FE96E000EEA22EF380F0BE66E9EDF0D
:1001E000E552DF50EA6A800FE96E000EEA22EF5016
:1001F000E66E94DFE552460EE66EE66A12DFE552E1
:10020000E552DF2AE0D7E552E552E7CFD9FF1200E9
:1002100001DF9EDFD2DFE80EE66E030EE66E01DF41
:0A022000E552E55288DFF6D7120020
:06022A00060EF66E000E48
:10023000F76E000EF86E00010900F550916F09008D
:10024000F550926F03E1916701D03DD00900F55060
:100250008C6F0900F5508D6F0900F5508E6F090005
:100260000900F550E96E0900F550EA6E0900090031
:100270000900F5508F6F0900F550906F09000900D3
:10028000F6CF93F0F7CF94F0F8CF95F08CC0F6FF4F
:100290008DC0F7FF8EC0F8FF00018F5302E190532D
:1002A00007E00900F550EE6E8F07F8E29007F9D7E6
:1002B00093C0F6FF94C0F7FF95C0F8FF00019107C7
:0802C000000E925BBFD7120093
:0802C800000EF36E00EE00F0E1
:1002D000060E01D81200EA6002D0EE6AFCD7F35095
:0802E000E9601200EE6AFCD790
:0802E80015EE00F025EE00F018
:1002F000F86A059C15EC01F082EC01F008EC01F0C5
:04030000FBD7120015
:020304001200E5
:0A0306004A4F524745204A554E4920
:020310004F524A
:020000040030CA
:0100010008F6
:010003001EDE
:00000001FF
