:020000040000FA
:06000000EFEF01F0120019
:020006000000F8
:08000800D9CFE6FFE1CFD9FFDB
:10001000040EE126DE6ADD6ADECF00F0DDCF01F0FE
:10002000FD0EDBCF02F0FE0EDBCF03F00250005CD2
:10003000035001581AE2020EDB6A030EDB6A020E5D
:10004000DBCF00F0030EDBCF01F0330E005C360E89
:10005000015806E2020EDB2A030E01E3DB2AEFD78A
:10006000DF2A010E01E3DB2AD7D7040EE15C02E2AE
:10007000E16AE552E16EE552E7CFD9FF1200D9CF30
:10008000E6FFE1CFD9FF040EE126DE6ADD6ADECFAE
:1000900000F0DDCF01F0FD0EDBCF02F0FE0EDBCF76
:1000A00003F00250005C035001581AE2020EDB6AB2
:1000B000030EDB6A020EDBCF00F0030EDBCF01F094
:1000C0000C0E005C000E015806E2020EDB2A030E45
:1000D00001E3DB2AEFD7DF2A010E01E3DB2AD7D7C2
:1000E000040EE15C02E2E16AE552E16EE552E7CF1F
:1000F000D9FF1200770ED36E949094828280120002
:10010000D9CFE6FFE1CFD9FF020EE126DE6ADD6A34
:10011000DECF00F0DDCF01F06C0E005C000E015868
:1001200005E2DF2A010E01E3DB2AF2D7020EE15CD1
:1001300002E2E16AE552E16EE552E7CFD9FF120033
:10014000D9CFE6FFE1CFD9FF020EE126DE6ADD6AF4
:10015000DECF00F0DDCF01F0350E005C000E01585F
:1001600005E2DF2A010E01E3DB2AF2D7020EE15C91
:1001700002E2E16AE552E16EE552E7CFD9FF1200F3
:10018000D9CFE6FFE1CFD9FF050EE126DE6ADD6AB1
:10019000020EDB6A030EDB6A040EDB6A82B2FED754
:1001A000CFDF82A202D0FF0E40D0AADFDE6ADD6A76
:1001B000DECF00F0DDCF01F0080E005C000E01582C
:1001C00031E28250020B01E0010EE66ED950030FBE
:1001D000E96EDACFEAFFE552E750EE6EED6A020E05
:1001E000DBCF00F0016A00BE0168030EDBCF04F034
:1001F000040EDBCF05F0DF5004C002F005C003F0B1
:1002000005E0D89002360336E804FBE10050021006
:10021000E76E020EE7CFDBFF73DFDF2A010E01E39B
:10022000DB2AC6D7020EDB5000D0006E050EE15C63
:1002300002E2E16AE552E16E0050E552E7CFD9FFF4
:100240001200D9CFE6FFE1CFD9FF060EE126DE6A24
:10025000DD6A010EF36E020EF3CFDBFF030EDB6AE5
:10026000040EDB6A050EDB6A040EDB50E8B0828008
:10027000E8A0829045DFDE6ADD6ADECF00F0DDCFE8
:1002800001F0080E005C000E015837E2FE0EDBCFD5
:1002900002F0036A02BE0368020EDBCF06F0030E13
:1002A000DBCF07F0DF5006C004F007C005F005E023
:1002B000D89004360536E804FBE102500414006EC1
:1002C00003500514016E0050011007E0010EF36E9B
:1002D000040EF3CFDBFF050EDB6A040EDB50E8B043
:1002E0008280E8A082900CDF040EDB6A050EDB6AD8
:1002F000DF2A010E01E3DB2AC0D7828001DF060E70
:10030000E15C02E2E16AE552E16EE552E7CFD9FF36
:100310001200F0DE35DFE66E94DFE552FBD7120007
:10032000060EF66E000EF76E000EF86E0001090064
:10033000F550856F0900F550866F03E1856701D0A0
:100340003DD00900F550806F0900F550816F09001C
:10035000F550826F09000900F550E96E0900F5506B
:10036000EA6E090009000900F550836F0900F55095
:10037000846F09000900F6CF87F0F7CF88F0F8CF37
:1003800089F080C0F6FF81C0F7FF82C0F8FF00014E
:10039000835302E1845307E00900F550EE6E8307B2
:1003A000F8E28407F9D787C0F6FF88C0F7FF89C055
:0E03B000F8FF00018507000E865BBFD7120024
:0203BE00000E2F
:1003C000F36E00EE00F0060E01D81200EA6002D0D3
:0E03D000EE6AFCD7F350E9601200EE6AFCD72B
:0203DE0015EE1A
:1003E00000F025EE00F0F86A099C90EC01F0FDECBD
:0A03F00001F089EC01F0FBD71200C8
:0203FA001200EF
:020000040030CA
:010003001EDE
:00000001FF
