:020000040000FA
:06000000A5EF05F012005F
:020006001200E6
:06000800CFEF00F0120032
:02000E000100EF
:0C001000660B00008000000016000000DD
:04001C00D9CFE6FF53
:10002000E1CFD9FF040EE126DE6ADD6ADECF14F0EF
:10003000DDCF15F0FD0EDBCF16F0FE0EDBCF17F097
:1000400015501718E8AE02D0173404D01650145CBF
:10005000175015581DE2020EDB6A030EDB6A020E12
:10006000DBCF14F0030EDBCF15F0D890155004E66B
:10007000280E145C000E155806E2020EDB2A030E51
:1000800001E3DB2AECD7DF2A010E01E3DB2ACED71E
:10009000040EE15C02E2E16AE552E16EE552E7CF6F
:1000A000D9FF1200D9CFE6FFE1CFD9FF020EE1263A
:1000B000DE6ADD6ADECF14F0DDCF15F0D890155082
:1000C00004E6A40E145C060E155805E2DF2A010EA4
:1000D00001E3DB2AEFD7020EE15C02E2E16AE552BE
:1000E000E16EE552E7CFD9FF1200D9CFE6FFE1CFAD
:1000F000D9FF020EE1268C828C92E15C02E2E16A79
:10010000E552E16EE552E7CFD9FF1200D9CFE6FF05
:10011000E1CFD9FF8C90FE0EDB508B6EE6DFE5520F
:10012000E7CFD9FF1200D9CFE6FFE1CFD9FF8C800E
:10013000FE0EDB508B6ED9DFE552E7CFD9FF120000
:10014000010EE66EE3DFE5521200ACDF380EE66E1C
:10015000DDDFE552020EE66EE66A60DFE552E5524B
:100160000C0EE66ED3DFE552020EE66EE66A56DF4F
:10017000E552E552010EE66EC9DFE552020EE66E6B
:10018000E66A4CDFE552E552060EE66EBFDFE55249
:10019000020EE66EE66A42DFE552E5521200DACF61
:1001A000E4FFE2CFDAFFE652F2A409D0F294FC0EAB
:1001B000D76E2C0ED66E0001812B000E8223F2B278
:1001C000F292F0A214D0F092000180050DE1806B54
:1001D00081C083F082C084F0816B826BD59E030E58
:1001E0008F27000E902303D0D58E010E806FE5522D
:1001F000E5CFDAFF1100F28EF28AF184F294938057
:10020000F288F2929384F088F0921200D59ED59CE9
:10021000D59AD586D76AD66A1200300EE66E83DF8D
:10022000E552300EE66E7FDFE552300EE66E7BDF84
:10023000E5524B0EE66E77DFE5526D0EE66E73DF2C
:10024000E5522F0EE66E6FDFE552680EE66E6BDF4D
:10025000E552200EE66E67DFE5527C0EE66E63DF48
:10026000E552200EE66E5FDFE552300EE66E5BDF94
:10027000E552300EE66E57DFE552300EE66E53DF84
:10028000E552520EE66E4FDFE552500EE66E4BDF42
:10029000E5524D0EE66E47DFE552C00EE66E36DFE4
:1002A000E552300EE66E3FDFE552300EE66E3BDF84
:1002B000E552300EE66E37DFE552300EE66E33DF84
:1002C000E552300EE66E2FDFE552200EE66E2BDF94
:1002D000E5524B0EE66E27DFE5526D0EE66E23DF2C
:1002E000E5521200D9CFE6FFE1CFD9FF060EE12695
:1002F000180E086E150E096E83C00DF084C00EF046
:100300007FEC05F008C085F009C086F0640E146E1D
:10031000156A85C008F086C009F014C00DF015C03C
:100320000EF07FEC05F008C0DEFF09C0DDFF85C0E0
:1003300016F086C017F00A0E0D6E0E6A16C008F091
:1003400017C009F07FEC05F008C016F009C017F0DF
:100350000A0E086E096ADECF0DF0DDCF0EF044EC18
:1003600005F00650165C146E07501758156E020EF5
:1003700014C0DBFF030E15C0DBFFDECF18F0DDCFAE
:1003800019F0640E1902F3CF19F01802F3CF18F028
:10039000F45019260A0E086E096A020EDBCF0DF022
:1003A000030EDBCF0EF044EC05F018500624166E59
:1003B00019500720176E00011650855D146E1750F6
:1003C0008659156E040E14C0DBFF050E15C0DBFF49
:1003D000DECF14F0DDCF15F0300E1424876F020E3F
:1003E000DBCF14F0030EDBCF15F0300E1424886F32
:1003F000040EDBCF14F0050EDBCF15F0300E142405
:10040000896F060EE15C02E2E16AE552E16EE552B7
:10041000E7CFD9FF1200D9CFE6FFE1CFD9FF060E13
:10042000E12683C017F084C018F0196A600E146EBC
:10043000EA0E156E166A14C007F015C008F016C053
:1004400009F017C00CF018C00DF019C00EF017EC31
:1004500005F007C08AF008C08BF0640E146E156AB0
:100460008AC008F08BC009F014C00DF015C00EF062
:100470007FEC05F008C0DEFF09C0DDFF8AC016F082
:100480008BC017F00A0E0D6E0E6A16C008F017C06A
:1004900009F07FEC05F008C016F009C017F00A0E4D
:1004A000086E096ADECF0DF0DDCF0EF044EC05F0EA
:1004B0000650165C146E07501758156E020E14C0C5
:1004C000DBFF030E15C0DBFFDECF18F0DDCF19F028
:1004D000640E1902F3CF19F01802F3CF18F0F4509C
:1004E00019260A0E086E096A020EDBCF0DF0030E04
:1004F000DBCF0EF044EC05F018500624166E1950B0
:100500000720176E000116508A5D146E17508B5924
:10051000156E040E14C0DBFF050E15C0DBFFDECF29
:1005200014F0DDCF15F0300E14248C6F020EDBCFEB
:1005300014F0030EDBCF15F0300E14248D6F040E73
:10054000DBCF14F0050EDBCF15F0300E14248E6FC8
:10055000060EE15C02E2E16AE552E16EE552E7CFA8
:10056000D9FF1200D9CFE6FFE1CFD9FF0E0EE12669
:10057000E80E146E030E156E8FC008F090C009F0DF
:1005800014C00DF015C00EF07FEC05F00C0E08C085
:10059000DBFF0D0E09C0DBFF100E146E270E156E6B
:1005A0000C0EDBCF08F00D0EDBCF09F014C00DF000
:1005B00015C00EF07FEC05F0020E08C0DBFF030E45
:1005C00009C0DBFF0C0EDBCF16F00D0EDBCF17F0F2
:1005D000E80E0D6E030E0E6E16C008F017C009F07F
:1005E0007FEC05F008C016F009C017F00A0E086E7F
:1005F000096A020EDBCF0DF0030EDBCF0EF044ECE8
:1006000005F00650165C146E07501758156E040E50
:1006100014C0DBFF050E15C0DBFF0C0EDBCF16F0A0
:100620000D0EDBCF17F0640E0D6E0E6A16C008F0CB
:1006300017C009F07FEC05F008C016F009C017F0EC
:10064000020EDBCF1AF0030EDBCF1BF0640E1B0291
:10065000F3CF1BF01A02F3CF1AF0F4501B260A0E48
:10066000086E096A040EDBCF0DF0050EDBCF0EF02D
:1006700044EC05F01A500624186E1B500720196E22
:100680001850165C146E19501758156E060E14C0CB
:10069000DBFF070E15C0DBFF0C0EDBCF16F00D0ED7
:1006A000DBCF17F00A0E0D6E0E6A16C008F017C0E9
:1006B00009F07FEC05F008C016F009C017F0020E33
:1006C000DBCF1CF0030EDBCF1DF0E80E1D02F3CFD5
:1006D0001DF0030E1C02F3501D26E80E1C02F3CF82
:1006E0001CF0F4501D26640E086E096A040EDBCF60
:1006F0000DF0050EDBCF0EF044EC05F01C50062487
:100700001A6E1D5007201B6E0A0E086E096A060E2F
:10071000DBCF0DF0070EDBCF0EF044EC05F01A50E6
:100720000624186E1B500720196E1850165C146EA4
:1007300019501758156E080E14C0DBFF090E15C0AE
:10074000DBFF020EDBCF1CF0030EDBCF1DF0100E23
:100750001D02F3CF1DF0270E1C02F3501D26100EB4
:100760001C02F3CF1CF0F4501D26E80E086E030E99
:10077000096E040EDBCF0DF0050EDBCF0EF044EC5E
:1007800005F01C5006241A6E1D5007201B6E640EC7
:10079000086E096A060EDBCF0DF0070EDBCF0EF0F8
:1007A00044EC05F01A500624186E1B500720196EF1
:1007B0000A0E086E096A080EDBCF0DF0090EDBCFBA
:1007C0000EF044EC05F018500624166E1950072060
:1007D000176E0C0EDBCF08F00D0EDBCF09F01650B4
:1007E000085C146E17500958156E0A0E14C0DBFF12
:1007F0000B0E15C0DBFF020EDBCF14F0030EDBCFB8
:1008000015F0300E14240001916F040EDBCF14F0AC
:10081000050EDBCF15F0300E1424926F060EDBCFE1
:1008200014F0070EDBCF15F0300E1424936F080E72
:10083000DBCF14F0090EDBCF15F0300E1424946FCB
:100840000A0EDBCF14F00B0EDBCF15F0300E1424A4
:10085000956F0E0EE15C02E2E16AE552E16EE5524F
:10086000E7CFD9FF1200D9CFE6FFE1CFD9FFE6529B
:10087000800EE66E4BDCE552DF6ADFCF14F0030E2C
:10088000E76E1418E8AE02D0E73402D0E750145CEB
:100890000FE2DFCFE9FFEA6AE9BEEA68870EE926E0
:1008A000000EEA22EF50E66E3EDCE552DF2AE5D785
:1008B000E552E552E7CFD9FF1200D9CFE6FFE1CFED
:1008C000D9FFE6528A0EE66E21DCE552DF6ADFCF01
:1008D00014F0030EE76E1418E8AE02D0E73402D02D
:1008E000E750145C0FE2DFCFE9FFEA6AE9BEEA688D
:1008F0008C0EE926000EEA22EF50E66E14DCE5527B
:10090000DF2AE5D7E552E552E7CFD9FF1200D9CF6C
:10091000E6FFE1CFD9FFE652C00EE66E86EC00F0AE
:10092000E552DF6ADFCF14F0050EE76E1418E8AE6B
:1009300002D0E73402D0E750145C10E2DFCFE9FFC9
:10094000EA6AE9BEEA68910EE926000EEA22EF5053
:10095000E66E93EC00F0E552DF2AE4D7E552E5526B
:10096000E7CFD9FF12000F0EC16E946A9590959251
:1009700042DC4CDCA5EC00F050DC0001805106E1CB
:10098000B1DC71DF48DD99DFEDDDC1DFF6D71200A4
:100990000E0EF66E000EF76E000EF86E00010900E6
:1009A000F5509B6F0900F5509C6F03E19B6701D0E8
:1009B0003DD00900F550966F0900F550976F09007A
:1009C000F550986F09000900F550E96E0900F550DF
:1009D000EA6E090009000900F550996F0900F55009
:1009E0009A6F09000900F6CF9DF0F7CF9EF0F8CF7F
:1009F0009FF096C0F6FF97C0F7FF98C0F8FF000180
:100A0000995302E19A5307E00900F550EE6E9907F9
:100A1000F8E29A07F9D79DC0F6FF9EC0F7FF9FC086
:0E0A2000F8FF00019B07000E9C5BBFD7120081
:020A2E00006A5C
:100A30000EAE22EF05F00C6C0D1E0E1EE86A0D22A4
:100A40000E22001E09AE2CEF05F0076C081E091ED1
:100A5000E86A08220922001E62EC05F009BE3FEF99
:100A600005F000AE000C076C081E091EE86A08229B
:100A70000922036C041E051E04220522000C00BE80
:100A800033EF05F00188FF0C08C012F008500D028A
:100A9000F4CF07F0F3CF06F009500E02F4CF09F0BF
:100AA000F3CF08F00D02F3500726F4500822E86A4D
:100AB000092212500E02F3500726F4500822E86A69
:040AC0000922000CFB
:0C0AC400056A046A036A180EE76ED890F9
:100AD0000736083609360336043605360C50035CF3
:100AE0000D5004580E50055807E30C50035E0D508E
:0E0AF000045A0E50055A072AE72EEAD71200C4
:020AFE00056A87
:100B0000046A100EE76ED8900836093604360536AA
:100B10000D50045C0E50055805E30D50045E0E5058
:0A0B2000055A082AE72EF0D712004C
:060B2A00000EF36E00EE68
:100B300000F0060E01D81200EA6002D0EE6AFCD77F
:0A0B4000F350E9601200EE6AFCD7E2
:060B4A0015EE00F025EE9F
:100B500000F0F86A019CC8EC04F003EC00F0B3EC80
:060B600004F0FBD71200B7
:0A0B6600001E001E000000303030B9
:0C0B7000000030303000003030303030F9
:020000040030CA
:010003001EDE
:010005008179
:00000001FF
