:020000040000FA
:0600000098EF01F0120070
:020006001200E6
:06000800BDEF00F0120044
:02000E000100EF
:0C0010004C0300008A000000010000000A
:04001C00D9CFE6FF53
:10002000E1CFD9FF040EE126DE6ADD6ADECF00F003
:10003000DDCF01F0FD0EDBCF02F0FE0EDBCF03F0D3
:1000400001500318E8AE02D0033404D00250005C23
:10005000035001581DE2020EDB6A030EDB6A020E3A
:10006000DBCF00F0030EDBCF01F0D890015004E6A7
:10007000280E005C000E015806E2020EDB2A030E79
:1000800001E3DB2AECD7DF2A010E01E3DB2ACED71E
:10009000040EE15C02E2E16AE552E16EE552E7CF6F
:1000A000D9FF1200D9CFE6FFE1CFD9FF020EE1263A
:1000B000DE6ADD6ADECF00F0DDCF01F0D8900150BE
:1000C00004E6A40E005C060E015805E2DF2A010ECC
:1000D00001E3DB2AEFD7020EE15C02E2E16AE552BE
:1000E000E16EE552E7CFD9FF12008C828C921200AC
:1000F000D9CFE6FFE1CFD9FF8C90FE0EDB508B6E9F
:10010000F4DFE552E7CFD9FF1200D9CFE6FFE1CF08
:10011000D9FF8C80FE0EDB508B6EE7DFE552E7CF18
:10012000D9FF12001200BEDF380EE66EE1DFE552A5
:10013000020EE66EE66A72DFE552E5520E0EE66EDC
:10014000D7DFE552020EE66EE66A68DFE552E55259
:10015000010EE66ECDDFE552020EE66EE66A5EDF68
:10016000E552E552060EE66EC3DFE552020EE66E7C
:10017000E66A54DFE552E5521200DACFE4FFE2CF3F
:10018000DAFFE9CFE4FFEACFE4FFF6CFE4FFF7CFF1
:10019000E4FFF5CFE4FFF3CFE4FFF4CFE4FFFACFC1
:1001A000E4FF00EE04F0020EE80403E3EECFE4FF08
:1001B000FBD700EE00F0040EE80403E3EECFE4FF0B
:1001C000FBD7E652F2A40CD0F294F80ED76E440E90
:1001D000D66E00018A0504E1620EE66E96DFE552F6
:1001E000F2A205D0F292410EE66E8FDFE552E552A3
:1001F00000EE03F0040EE80403E3E5CFEDFFFBD7C8
:1002000000EE05F0020EE80403E3E5CFEDFFFBD7B7
:10021000E5CFFAFFE5CFF4FFE5CFF3FFE5CFF5FF3C
:10022000E5CFF7FFE5CFF6FFE5CFEAFFE5CFE9FF42
:10023000E5CFDAFF1100F28EF28AF184F294938016
:10024000F288F2921200D58ED59CD59AD586F80EFA
:10025000D76E440ED66E12000F0EC16E946A959042
:100260009592E9DFF0DF5FDF0001010E8A6FFFD7B3
:0202700012007A
:0E0272000E0EF66E000EF76E000EF86E000116
:100280000900F550856F0900F550866F03E1856719
:1002900001D03DD00900F550806F0900F550816F05
:1002A0000900F550826F09000900F550E96E090058
:1002B000F550EA6E090009000900F550836F090046
:1002C000F550846F09000900F6CF87F0F7CF88F06A
:1002D000F8CF89F080C0F6FF81C0F7FF82C0F8FF39
:1002E0000001835302E1845307E00900F550EE6EEC
:1002F0008307F8E28407F9D787C0F6FF88C0F7FFC5
:1003000089C0F8FF00018507000E865BBFD7120089
:10031000000EF36E00EE00F0060E01D81200EA6047
:1003200002D0EE6AFCD7F350E9601200EE6AFCD707
:1003300015EE00F025EE00F0F86A059C39EC01F0AE
:0C03400003EC00F02CEC01F0FBD71200E5
:01034C0000B0
:020000040030CA
:010003001EDE
:010005008179
:00000001FF
