:020000040000FA
:06000000AAEF00F012005F
:020006000000F8
:0600080056EF00F01200AB
:02000E00060EDC
:10001000F66E000EF76E000EF86E00010900F55046
:10002000856F0900F550866F03E1856701D03DD0EB
:100030000900F550806F0900F550816F0900F550F7
:10004000826F09000900F550E96E0900F550EA6E6B
:10005000090009000900F550836F0900F550846F0D
:1000600009000900F6CF87F0F7CF88F0F8CF89F0C4
:1000700080C0F6FF81C0F7FF82C0F8FF0001835304
:1000800002E1845307E00900F550EE6E8307F8E2C1
:100090008407F9D787C0F6FF88C0F7FF89C0F8FF4B
:0C00A00000018507000E865BBFD7120030
:0400AC00DACFE4FFC4
:1000B000E2CFDAFFE652E552E5CFDAFF11000F0E8C
:1000C000C16E7C0ED36E92809282928492869590BD
:1000D00095921200F29E1200D9CFE6FFE1CFD9FF30
:1000E000E652DF6ADFCF02F0120EE76E0218E8AECA
:1000F00002D0E73402D0E750025C03E28C80DF2AB2
:10010000F1D7DF6ADFCF02F0010EE76E0218E8AE2A
:1001100002D0E73402D0E750025C03E28C90DF2A81
:10012000F1D7E552E552E7CFD9FF1200C8DFD4DF9F
:04013000FED71200E4
:0C013400000EF36E00EE00F0060E01D885
:100140001200EA6002D0EE6AFCD7F350E9601200B8
:04015000EE6AFCD780
:0C01540015EE00F025EE00F0F86A019CAA
:1001600007EC00F0B8EC00F096EC00F0FBD71200C2
:0201700012007B
:020000040030CA
:010003001EDE
:010005008179
:00000001FF
