:020000040000FA
:0600000099EF04F012006C
:020006000000F8
:0600080007EF00F01200FA
:02000E00DACF47
:10001000E4FFE2CFDAFFE9CFE4FFEACFE4FFF6CF77
:10002000E4FFF7CFE4FFF5CFE4FFF3CFE4FFF4CF35
:10003000E4FFFACFE4FF00EE00F0100EE80403E363
:10004000EECFE4FFFBD700EE10F00C0EE80403E364
:10005000EECFE4FFFBD7E652F2A207D0F292000106
:10006000010E806F826F310E816FF0A007D0F0908B
:100070000001010E806F826F320E816FF0A207D0F7
:10008000F0920001010E806F826F330E816FF2A437
:1000900006D0F2940B0ED76EDC0ED66E65D8E55204
:1000A00000EE1BF00C0EE80403E3E5CFEDFFFBD7F9
:1000B00000EE0FF0100EE80403E3E5CFEDFFFBD7F1
:1000C000E5CFFAFFE5CFF4FFE5CFF3FFE5CFF5FF8E
:1000D000E5CFF7FFE5CFF6FFE5CFEAFFE5CFE9FF94
:1000E000E5CFDAFF11000001300E836F846F856F5A
:1000F000866F876F886F896B8A6B8B6B8C6B806B5D
:10010000816F010E826F12000F0EC16E770ED36EDB
:100110009388938A938C938E8B8012009490949200
:1001200094943C0EBA6E640ECB6E320EBB6E060E0D
:10013000CA6E1200F28EF288F292F086F08CF09085
:10014000F088F08EF092F28AF184F2941200D58E4B
:10015000D59CD59AD596D590D592D5840B0ED76ED1
:10016000DC0ED66E94901200000189C010F08AC097
:1001700011F08BC012F08CC013F0892B000E8A2373
:100180008B238C231334000E131809E6D880800EBD
:100190001054510E1154010E1254000E135404E267
:1001A000896B8A6B8B6B8C6B1200D9CFE6FFE1CF2A
:1001B000D9FF020EE126DE6ADD6ADFCF10F0DF2A0A
:1001C000010EDBCF11F001E3DB2A6B0E105C000E99
:1001D000115801E2F2D7020EE15C02E2E16AE55257
:1001E000E16EE552E7CFD9FF1200D9CFE6FFE1CFAC
:1001F000D9FF060EE126DE6ADD6A010EF36E020EFD
:10020000F3CFDBFF030EDB6A040EDB6A050EDB6A4D
:10021000040EDB50E8B08B80E8A08B90C6DFDE6A6E
:10022000DD6ADECF10F0DDCF11F0080E105C000E9D
:10023000115837E2FE0EDBCF12F0136A12BE1368BC
:10024000020EDBCF16F0030EDBCF17F0DF5016C027
:1002500014F017C015F005E0D89014361536E804F0
:10026000FBE112501414106E13501514116E10503F
:10027000111007E0010EF36E040EF3CFDBFF050E45
:10028000DB6A040EDB50E8B08B80E8A08B908DDF3A
:10029000040EDB6A050EDB6ADF2A010E01E3DB2AAE
:1002A000C0D78B8082DF060EE15C02E2E16AE55294
:1002B000E16EE552E7CFD9FF1200D9CFE6FFE1CFDB
:1002C000D9FF0C0EE12689C006F08AC007F08BC06A
:1002D00008F08CC009F0100E0B6E0E0E0C6E0D6A3D
:1002E0000E6A31EC04F006C0DEFF07C0DEFF08C076
:1002F000DEFF09C0DDFFDD52DD52D9CFE9FFDACFE5
:10030000EAFFEECF06F0EECF07F0EECF08F0EFCF2A
:1003100009F0100E0B6E0E0E0C6E0D6A0E6AF9ECE3
:1003200003F002500001895D066E03508A59076E82
:1003300004508B59086E05508C59096E3C0E0B6E9B
:100340000C6A0D6A0E6A31EC04F0040E06C0DBFF85
:10035000050E07C0DBFF060E08C0DBFF070E09C055
:10036000DBFFD9CFE9FFDACFEAFFEECF14F0EECF13
:1003700015F0EECF16F0EFCF17F0100E0B6E0E0E3D
:100380000C6E0D6A0E6A14C006F015C007F016C098
:1003900008F017C009F0F9EC03F002C014F003C034
:1003A00015F004C016F005C017F0040EDBCF18F0EE
:1003B000050EDBCF19F0060EDBCF1AF0070EDBCFF0
:1003C0001BF03C0E0B6E0C6A0D6A0E6A18C006F02C
:1003D00019C007F01AC008F01BC009F0F9EC03F0CF
:1003E00002C018F003C019F004C01AF005C01BF0D9
:1003F00018501426195015221A5016221B50172275
:1004000014500001895D106E15508A59116E1650F6
:100410008B59126E17508C59136E080E10C0DBFFEB
:10042000090E11C0DBFF0A0E12C0DBFF0B0E13C05A
:10043000DBFFD9CFE9FFDACFEAFFEECF06F0EECF50
:1004400007F0EECF08F0EFCF09F00A0E0B6E0C6A42
:100450000D6A0E6A31EC04F006C083F00A0E00014A
:100460008303F3CF14F0156A166A176A14AE03D02B
:10047000156816681768D9CFE9FFDACFEAFF14507C
:10048000EE5C106E1550EE58116E1650EE58126E4E
:100490001750EE58136E10C084F0040EDBCF06F038
:1004A000050EDBCF07F0060EDBCF08F0070EDBCF23
:1004B00009F00A0E0B6E0C6A0D6A0E6A31EC04F03C
:1004C00006C085F00A0E00018503F3CF14F0156A0B
:1004D000166A176A14AE03D0156816681768D950E3
:1004E000040FE96EDACFEAFF1450EE5C106E15507F
:1004F000EE58116E1650EE58126E1750EE58136EDD
:1005000010C086F0080EDBCF06F0090EDBCF07F037
:100510000A0EDBCF08F00B0EDBCF09F00A0E0B6ED4
:100520000C6A0D6A0E6A31EC04F006C087F00A0E00
:1005300000018703F3CF14F0156A166A176A14AE28
:1005400003D0156816681768D950080FE96EDACF1E
:10055000EAFF1450EE5C106E1550EE58116E1650F6
:10056000EE58126E1750EE58136E10C088F0300E11
:100570008325836F300E8425846F300E8525856F2B
:10058000300E8625866F300E8725876F300E8825C2
:10059000886F0C0EE15C02E2E16AE552E16EE55221
:1005A000E7CFD9FF1200D9CFE6FFE1CFD9FF100E78
:1005B000E126DE525A0EDD6E4F0EF36E020EF3CFC1
:1005C000DBFF4E0EF36E030EF3CFDBFF410EF36E37
:1005D000040EF3CFDBFF200EF36E050EF3CFDBFF2F
:1005E000060E81C0DBFF200EF36E070EF3CFDBFF9C
:1005F000080E83C0DBFF090E84C0DBFF3A0EF36EEA
:100600000A0EF3CFDBFF0B0E85C0DBFF0C0E86C09E
:10061000DBFF3A0EF36E0D0EF3CFDBFF0E0E87C03D
:10062000DBFF0F0E88C0DBFF0001826BDF6ADFCFCC
:1006300010F00F0EE76E1018E8AE02D0E73402D0CB
:10064000E750105C16E2D950010F106EDACF11F0AE
:10065000DFCF12F0136A12BE136810501224E96E35
:1006600011501320EA6EEF50E66EBFDDE552DF2A2F
:10067000DED70D0EE66EB9DDE552100EE15C02E24A
:10068000E16AE552E16EE552E7CFD9FF1200300E84
:10069000BA6E1200D9CFE6FFE1CFD9FF040EE126F2
:1006A000640EDF6EDE52010EDD6E1DDD2DDD42DDDE
:1006B00035DD4DDD7ADD0001800540E1820502E196
:1006C000FCDD71DF3C0EBA6EDF50CB6EDF50FE0BEF
:1006D000E842BB6EDF50106E116A113404E2105014
:1006E0009608000E115403E2010EDB6A06D0320EAA
:1006F000DF5C03E2DE52010EDD6E010EDB0403E17E
:10070000DF28DF6E02D0DF04DF6E020EDB6A030E2D
:10071000DB6A020EDBCF10F0030EDBCF11F0D890B6
:10072000115004E65E0E105C010E115806E2020E36
:10073000DB2A030E01E3DB2AECD701D0A8DFBBD70D
:10074000040EE15C02E2E16AE552E16EE552E7CFB8
:04075000D9FF1200BB
:0C075400060EF66E000EF76E000EF86E3A
:1007600000010900F550926F0900F550936F03E105
:10077000926701D03DD00900F5508D6F0900F5500A
:100780008E6F0900F5508F6F09000900F550E96E72
:100790000900F550EA6E090009000900F550906F54
:1007A0000900F550916F09000900F6CF94F0F7CFDA
:1007B00095F0F8CF96F08DC0F6FF8EC0F7FF8FC092
:1007C000F8FF0001905302E1915307E00900F55052
:1007D000EE6E9007F8E29107F9D794C0F6FF95C046
:1007E000F7FF96C0F8FF00019207000E935BBFD79A
:0207F0001200F5
:0E07F20006500B02F3CF02F0F4CF03F00C021E
:10080000F3500326000EF420046E06500D02F35040
:100810000426000EF420056E06500E02F350052645
:1008200007500B02F3500326F4500422000E052259
:1008300007500C02F3500426F450052207500D0215
:10084000F350052608500B02F3500426F4500522FD
:1008500008500C02F350052609500B02F3500526F0
:02086000120084
:0E086200006AE86A0EAE3EEF04F00B6C0C1E4E
:100870000D1E0E1E0C220D220E22001E09AE49EF87
:1008800004F0066C071E081E091E07220822092212
:10089000001E65EC04F009BE60EF04F000AE000C31
:1008A000066C071E081E091EE86A07220822092294
:1008B000026C031E041E051E032204220522000CE6
:0A08C00000BE50EF04F00188FF0CA9
:0608CA00056A046A036ADE
:1008D000026A200EE76ED8900636073608360936CB
:1008E00002360336043605360B50025C0C500358B2
:1008F0000D5004580E50055809E30B50025E0C5081
:10090000035A0D50045A0E50055A062AE72EE4D712
:020910001200D3
:0E091200000EF36E00EE00F0060E01D812008B
:10092000EA6002D0EE6AFCD7F350E9601200EE6A8A
:02093000FCD7F2
:0E09320015EE00F025EE00F0F86A019CAAEC2C
:0E09400003F0A7EC04F04AEC03F0FBD7120022
:02094E00120095
:020000040030CA
:010003001EDE
:010005008179
:00000001FF
