:020000040000FA
:060000002CEF02F01200DB
:020006000000F8
:08000800D9CFE6FFE1CFD9FFDB
:10001000040EE126DE6ADD6ADECF10F0DDCF11F0DE
:10002000FD0EDBCF12F0FE0EDBCF13F01250105C92
:10003000135011581AE2020EDB6A030EDB6A020E3D
:10004000DBCF10F0030EDBCF11F0330E105C360E59
:10005000115806E2020EDB2A030E01E3DB2AEFD77A
:10006000DF2A010E01E3DB2AD7D7040EE15C02E2AE
:10007000E16AE552E16EE552E7CFD9FF1200D9CF30
:10008000E6FFE1CFD9FF040EE126DE6ADD6ADECFAE
:1000900010F0DDCF11F0FD0EDBCF12F0FE0EDBCF46
:1000A00013F01250105C135011581AE2020EDB6A62
:1000B000030EDB6A020EDBCF10F0030EDBCF11F074
:1000C0000C0E105C000E115806E2020EDB2A030E25
:1000D00001E3DB2AEFD7DF2A010E01E3DB2AD7D7C2
:1000E000040EE15C02E2E16AE552E16EE552E7CF1F
:1000F000D9FF1200926A936A946A958095829584DA
:100100009598440ED36E120000018A6B8B6B8C6B3A
:100110008D6B8AC089FF8BC08AFF8CC08BFF8C8857
:100120001200070E00018C25106E600E116E11C0BA
:100130000CF010C007F03AEC02F0035003E10001AC
:100140008C6B09D0070E00018C250F0B03E1070E05
:100150008C2701D08C2B8C5137E1070E8B25106E2C
:10016000600E116E11C00CF010C007F03AEC02F0F6
:10017000035003E100018B6B0BD0070E00018B25B0
:100180000F0B04E1070E8B258B6F02D08B298B6F31
:100190008B511AE18A29106E240E116E11C00CF0D9
:1001A00010C007F03AEC02F0035003E100018A6B43
:1001B0000BD0070E00018A250F0B04E1070E8A25DC
:1001C0008A6F02D08A298A6F12008CC08BFF8BC085
:1001D0008AFF8AC089FF120000018A29106E240E4E
:1001E000116E11C00CF010C007F03AEC02F0035091
:1001F00003E100018A6B0BD0070E00018A250F0B6B
:1002000004E1070E8A258A6F02D08A298A6F8AC084
:1002100089FF8AC08DF01200070E00018B25106E39
:10022000600E116E11C00CF010C007F03AEC02F035
:10023000035003E100018B6B0BD0070E00018B25EF
:100240000F0B04E1070E8B258B6F02D08B298B6F70
:100250008BC08AFF1200D9CFE6FFE1CFD9FF020E93
:10026000E12683B0FED783A004D0020EE15C18E241
:1002700015D083A208D0B0DF900EE66E010EE66EB8
:10028000FEDEE552E55283A408D0C6DF900EE66E8E
:10029000010EE66EF4DEE552E552E5D7E16AE5527D
:1002A000E16EE552E7CFD9FF1200D9CFE6FFE1CFEB
:1002B000D9FF060EE126040EDB6A050EDB6A83A079
:1002C00037D0040EDBCF10F0050EDBCF11F0020E9D
:1002D000105C000E115820E2DE6ADD6ADECF10F0FD
:1002E000DDCF11F0330E105C360E11580FE283B0E3
:1002F00008D00A0EF36E040EF3CFDBFF050EDB6AA7
:1003000005D0DF2A010E01E3DB2AE8D7040EDB2A41
:10031000050E01E3DB2AD5D7040EDBCF06F0050E70
:10032000DBCF07F0020E06C0DBFF030E07C0DBFFCA
:10033000D950020FE96EDACFEAFF020EEE1801E1A2
:10034000ED5002E1010E02D0000E00D0106E060E3C
:10035000E15C02E2E16AE552E16E1050E552E7CF5E
:10036000D9FF120000018A518D5D02E08C9801D006
:100370008C881200BFDEC8DE8AC08DF096DF0108CF
:1003800001E169DF010EE66EE66A3EDEE552E55206
:0A039000C8DE1BDFE7DFF0D7120024
:06039A00060EF66E000ED7
:1003A000F76E000EF86E00010900F550856F090028
:1003B000F550866F03E1856701D03DD00900F55007
:1003C000806F0900F550816F0900F550826F0900B8
:1003D0000900F550E96E0900F550EA6E09000900C0
:1003E0000900F550836F0900F550846F090009007A
:1003F000F6CF87F0F7CF88F0F8CF89F080C0F6FF0E
:1004000081C0F7FF82C0F8FF0001835302E18453EB
:1004100007E00900F550EE6E8307F8E28407F9D78C
:1004200087C0F6FF88C0F7FF89C0F8FF0001850785
:08043000000E865BBFD712002D
:08043800000EF36E00EE00F06F
:10044000060E01D81200EA6002D0EE6AFCD7F35023
:08045000E9601200EE6AFCD71E
:0804580015EE00F025EE00F0A6
:10046000F86A0F9CCDEC01F048EC02F0BAEC01F018
:04047000FBD71200A4
:0C047400036A080EE76ED89007360336C6
:100480000C50035C02E3036E072AE72EF7D7120035
:02049000120058
:020000040030CA
:0100010008F6
:010003001EDE
:00000001FF
