:020000040000FA
:0600000055EF02F01200B2
:0A0006000100E40400008A0000007D
:040010000A000000E2
:0C001400D9CFE6FFE1CFD9FF040EE126B2
:10002000DE6ADD6ADECF10F0DDCF11F0FD0EDBCF32
:1000300012F0FE0EDBCF13F01250105C135011586B
:100040001AE2020EDB6A030EDB6A020EDBCF10F04F
:10005000030EDBCF11F0330E105C360E115806E2A2
:10006000020EDB2A030E01E3DB2AEFD7DF2A010EA3
:1000700001E3DB2AD7D7040EE15C02E2E16AE55234
:10008000E16EE552E7CFD9FF1200D9CFE6FFE1CF0D
:10009000D9FF040EE126DE6ADD6ADECF10F0DDCF87
:1000A00011F0FD0EDBCF12F0FE0EDBCF13F012507D
:1000B000105C135011581AE2020EDB6A030EDB6A61
:1000C000020EDBCF10F0030EDBCF11F00C0E105C34
:1000D000000E115806E2020EDB2A030E01E3DB2AB2
:1000E000EFD7DF2A010E01E3DB2AD7D7040EE15C4C
:1000F00002E2E16AE552E16EE552E7CFD9FF120074
:10010000800E946E030E956E440ED36E12000001A5
:10011000946B956B966B976B8AC08BFFFC0E8C6E05
:100120008C8812000001962B3C0E965D0BE1966BBD
:10013000952B3C0E955D06E1956B942B180E945D06
:1001400001E1946B1200D9CFE6FFE1CFD9FF0B0E8E
:10015000E1260A0E106E10C00CF096C007F063EC9A
:1001600002F007500A0DF3500001965DE76E050E90
:10017000E7CFDBFF0A0E106E10C00CF096C007F040
:1001800063EC02F0060E07C0DBFF0A0E106E10C013
:100190000CF095C007F063EC02F007500A0DF35025
:1001A0000001955DE76E070EE7CFDBFF0A0E106ECC
:1001B00010C00CF095C007F063EC02F0080E07C009
:1001C000DBFF0A0E106E10C00CF094C007F063EC59
:1001D00002F007500A0DF3500001945DE76E090E1E
:1001E000E7CFDBFF0A0E106E10C00CF094C007F0D2
:1001F00063EC02F00A0E07C0DBFFDE6ADD6ADECFC9
:1002000010F0DDCF11F0E60E105C020E11583FE247
:10021000800EF36E040EF3CFDBFF020EDB6A030EDB
:10022000DB6A020EDBCF10F0030EDBCF11F0060EFF
:10023000105C000E115826E28C6AD950050F106E22
:10024000DACF11F0020EDB501024E96E030EDB5002
:100250001120EA6EEF50EA6A8A0FE96E000EEA2278
:10026000EF508B6E040EDB508C6E040EDB407F0B68
:10027000E76E040EE7CFDBFF020EDB2A030E01E37D
:10028000DB2ACFD7DF2A010E01E3DB2AB8D70B0E1A
:10029000E15C02E2E16AE552E16EE552E7CFD9FFA7
:1002A00012000001942B180E945D01E1946B94C030
:1002B00097F012000001952B3C0E955D01E1956BC6
:1002C0001200D9CFE6FFE1CFD9FF020EE12680B0C0
:1002D000FED780A004D0020EE15C18E215D080A207
:1002E00008D0DFDF900EE66E010EE66ECEDEE55240
:1002F000E55280A408D0DEDF900EE66E010EE66EB9
:10030000C4DEE552E552E5D7E16AE552E16EE55219
:10031000E7CFD9FF1200D9CFE6FFE1CFD9FF060E14
:10032000E126040EDB6A050EDB6A80A037D0040EDE
:10033000DBCF10F0050EDBCF11F0020E105C000ECB
:10034000115820E2DE6ADD6ADECF10F0DDCF11F059
:10035000330E105C360E11580FE280B008D00A0E32
:10036000F36E040EF3CFDBFF050EDB6A05D0DF2A48
:10037000010E01E3DB2AE8D7040EDB2A050E01E3B8
:10038000DB2AD5D7040EDBCF06F0050EDBCF07F056
:10039000020E06C0DBFF030E07C0DBFFD950020FC1
:1003A000E96EDACFEAFF020EEE1801E1ED5002E14C
:1003B000010E02D0000E00D0106E060EE15C02E2CB
:1003C000E16AE552E16E1050E552E7CFD9FF120025
:1003D00000019451975D02E08C9801D08C88120046
:0C03E0008FDE95DE9FDEAFDEFDD7120041
:0403EC00060EF66E95
:1003F000000EF76E000EF86E00010900F550856FD3
:100400000900F550866F03E1856701D03DD00900F2
:10041000F550806F0900F550816F0900F550826F2B
:1004200009000900F550E96E0900F550EA6E09006F
:1004300009000900F550836F0900F550846F090029
:100440000900F6CF87F0F7CF88F0F8CF89F080C0A9
:10045000F6FF81C0F7FF82C0F8FF0001835302E17D
:10046000845307E00900F550EE6E8307F8E2840735
:10047000F9D787C0F6FF88C0F7FF89C0F8FF0001F1
:0A0480008507000E865BBFD712004F
:06048A00000EF36E00EE0F
:1004900000F0060E01D81200EA6002D0EE6AFCD726
:0A04A000F350E9601200EE6AFCD789
:0604AA0015EE00F025EE46
:1004B00000F0F86A0F9CF6EC01F071EC02F0F0EC41
:0604C00001F0FBD7120061
:0A04C600036A080EE76ED8900736AF
:1004D00003360C50035C02E3036E072AE72EF7D7BE
:0204E000120008
:0204E200120006
:0A04E400014F12064C24200F000403
:020000040030CA
:0100010008F6
:010003001EDE
:00000001FF
