:020000040000FA
:06000000C5EF03F0120041
:0A0006000100C407000080000000A4
:0400100016000000D6
:0C001400D9CFE6FFE1CFD9FF040EE126B2
:10002000DE6ADD6ADECF10F0DDCF11F0FD0EDBCF32
:1000300012F0FE0EDBCF13F01250105C135011586B
:100040001AE2020EDB6A030EDB6A020EDBCF10F04F
:10005000030EDBCF11F0330E105C360E115806E2A2
:10006000020EDB2A030E01E3DB2AEFD7DF2A010EA3
:1000700001E3DB2AD7D7040EE15C02E2E16AE55234
:10008000E16EE552E7CFD9FF1200D9CFE6FFE1CF0D
:10009000D9FF040EE126DE6ADD6ADECF10F0DDCF87
:1000A00011F0FD0EDBCF12F0FE0EDBCF13F012507D
:1000B000105C135011581AE2020EDB6A030EDB6A61
:1000C000020EDBCF10F0030EDBCF11F00C0E105C34
:1000D000000E115806E2020EDB2A030E01E3DB2AB2
:1000E000EFD7DF2A010E01E3DB2AD7D7040EE15C4C
:1000F00002E2E16AE552E16EE552E7CFD9FF120074
:10010000800E946EC00E926E939095809592959409
:1001100095969588958A958C958E440ED36E12008F
:100120000001A06BA16BA26B060EA36FA46BA56B65
:100130008C828C848C868A8080C08BFF3F0E896E77
:100140001200D9CFE6FFE1CFD9FF090EE126200E3C
:10015000F36E020EF3CFDBFFFE0EDB0402E1000EB6
:100160000DD00A0E106E10C00CF0A2C007F0D3EC38
:1001700003F007500A0DF3500001A25DE76E030E75
:10018000E7CFDBFFFE0EDB0402E1000E09D00A0E12
:10019000106E10C00CF0A2C007F0D3EC03F00750B3
:1001A000E76E040EE7CFDBFFFE0EDB040EE10A0E66
:1001B000106E10C00CF0A4C007F0D3EC03F0075091
:1001C0000A0DF3500001A45D0DD00A0E116E11C08E
:1001D0000CF0A1C007F0D3EC03F007500A0DF35068
:1001E0000001A15DE76E050EE7CFDBFFFE0EDB042D
:1001F0000AE10A0E106E10C00CF0A4C007F0D3EC98
:1002000003F0075009D00A0E116E11C00CF0A1C006
:1002100007F0D3EC03F00750E76E060EE7CFDBFFE5
:10022000FE0EDB040EE10A0E106E10C00CF0A3C02F
:1002300007F0D3EC03F007500A0DF3500001A35D63
:100240000DD00A0E116E11C00CF0A0C007F0D3EC57
:1002500003F007500A0DF3500001A05DE76E070E92
:10026000E7CFDBFFFE0EDB040AE10A0E106E10C0C2
:100270000CF0A3C007F0D3EC03F0075009D00A0E2E
:10028000116E11C00CF0A0C007F0D3EC03F00750C2
:10029000E76E080EE7CFDBFFDE6ADD6ADECF10F027
:1002A000DDCF11F0060E105C000E115823E2896AB2
:1002B000D950030F106EDACF11F0DE501024E96E22
:1002C000DD501120EA6EEF50EA6A800FE96E000EF1
:1002D000EA22EF508B6E020EDB50896E020EDB407D
:1002E0007F0BE76E020EE7CFDBFFDF2A010E01E393
:1002F000DB2AD4D7090EE15C02E2E16AE552E16E45
:10030000E552E7CFD9FF1200D9CFE6FFE1CFD9FF01
:10031000020EE126DE6ADD6ADECF10F0DDCF11F0DD
:100320001E0E105C010E115808E2E66A0ADFE55263
:10033000DF2A010E01E3DB2AEFD7020EE15C02E2C5
:10034000E16AE552E16EE552E7CFD9FF1200000104
:10035000A22B3C0EA25D0BE1A26BA12B3C0EA15D7A
:1003600006E1A16BA02B180EA05D01E1A06B1200AD
:10037000D9CFE6FFE1CFD9FF020EE126C80EDF6E2E
:10038000010EDB6A040EF36E010EDBCFF4FFF350B7
:10039000F45C5BE2010EDB50020A10E0030A0AE0A3
:1003A000010A04E08C828C848C860CD08C848C8630
:1003B0008C9208D08C828C868C9404D08C828C8415
:1003C0008C9600D0010EDB50040801E23BD083B8CC
:1003D0000DD083A8FED7010EDB50EA6A8A0FE96EC2
:1003E000000EEA22EFCFDFFF30D02CD083BA0DD041
:1003F00083AAFED7010EDB50EA6A8D0FE96E000E6C
:10040000EA22EFCFDFFF21D01DD083BC0DD083AC1B
:10041000FED7010EDB50EA6A900FE96E000EEA2269
:10042000EFCFDFFF12D00ED083BE0CD083AEFED74D
:10043000010EDB50EA6A930FE96E000EEA22EFCF5D
:10044000DFFF03D0010EDB2A9DD7DF50106E116A4B
:10045000C80E101801E1115002E0DF5002D0C80EA2
:1004600000D0106E020EE15C02E2E16AE552E16E3C
:100470001050E552E7CFD9FF1200D9CFE6FFE1CF08
:10048000D9FF020EE126010EDB6A83B0FED7040E0F
:10049000F36E010EDBCFF4FFF350F45C05E3010EC5
:1004A000E66E4FDEE55203D0E66A4BDEE55283A0EE
:1004B0002ED083B0FED7020EF36E010EDBCFF4FF19
:1004C000F350F45C04E2DE52020EDD6E20D0040E26
:1004D000F36E010EDBCFF4FFF350F45C04E2DE5266
:1004E000040EDD6E14D0060EF36E010EDBCFF4FFAA
:1004F000F350F45C04E2DE52060EDD6E08D0010E0D
:10050000DB50050804E2020EE15C60E25DD030DF02
:10051000DF6EDF50106E116AC80E101801E1115025
:1005200001E151D0010EDB5007E10A0EDF02F3CFEB
:10053000A1F0010EDB2A47D0010EDB0406E1DF50FB
:100540000001A127010EDB2A3ED0010EDB5002087C
:1005500007E10A0EDF02F3CFA0F0010EDB2A33D051
:10056000010EDB50030806E1DF500001A027010E59
:10057000DB2A29D0010EDB50040807E10A0EDF0256
:10058000F3CFA4F0010EDB2A1ED0010EDB500508CC
:1005900006E1DF500001A427010EDB2A14D0010E72
:1005A000DB50060807E10A0EDF02F3CFA3F0010ECD
:1005B000DB2A09D0010EDB50070805E1DF500001FE
:1005C000A327010EDB2A63D7E16AE552E16EE5520B
:1005D000E7CFD9FF1200D9CFE6FFE1CFD9FF040E54
:1005E000E126020EDB6A030EDB6A83A02BD0020E2B
:1005F000DBCF10F0030EDBCF11F0020E105C000E0B
:10060000115820E2DE6ADD6ADECF10F0DDCF11F096
:10061000330E105C360E11580FE283B008D00A0E6C
:10062000F36E020EF3CFDBFF030EDB6A05D0DF2A89
:10063000010E01E3DB2AE8D7020EDB2A030E01E3F9
:10064000DB2AD5D7D950020FE96EDACFEAFF020EC6
:10065000EE1801E1ED5002E1010E02D0000E00D0D3
:10066000106E040EE15C02E2E16AE552E16E1050A8
:10067000E552E7CFD9FF12000001A50502E18A90FB
:1006800001D08A80A051A35D0CE1A151A45D09E1D4
:100690000A0EA25D06E2030EA55D02E0010EA56F43
:1006A00001D0A56B12002CDD3BDD2EDE50DE835029
:1006B000010B05E00001A50502E1030EA56FDCDFDB
:0C06C0008ADF010801E1D9DEF0D712004A
:0406CC00060EF66EB2
:1006D000000EF76E000EF86E00010900F5509B6FDA
:1006E0000900F5509C6F03E19B6701D03DD00900E4
:1006F000F550966F0900F550976F0900F550986F07
:1007000009000900F550E96E0900F550EA6E09008C
:1007100009000900F550996F0900F5509A6F09001A
:100720000900F6CF9DF0F7CF9EF0F8CF9FF096C06E
:10073000F6FF97C0F7FF98C0F8FF0001995302E158
:100740009A5307E00900F550EE6E9907F8E29A0710
:10075000F9D79DC0F6FF9EC0F7FF9FC0F8FF0001CC
:0A0760009B07000E9C5BBFD7120040
:06076A00000EF36E00EE2C
:1007700000F0060E01D81200EA6002D0EE6AFCD743
:0A078000F350E9601200EE6AFCD7A6
:06078A0015EE00F025EE63
:1007900000F0F86A0F9C66EC03F0E1EC03F053EC18
:0607A00003F0FBD712007C
:0A07A600036A080EE76ED8900736CC
:1007B00003360C50035C02E3036E072AE72EF7D7DB
:0207C000120025
:0207C200120023
:0C07C400014F12064C24200F000401021B
:0A07D00003040506070809C800C865
:020000040030CA
:0100010008F6
:010003001EDE
:00000001FF
