:020000040000FA
:0600000061EF02F01200A6
:0A0006000100FC0400008A00000065
:040010000A000000E2
:0C001400D9CFE6FFE1CFD9FF040EE126B2
:10002000DE6ADD6ADECF10F0DDCF11F0FD0EDBCF32
:1000300012F0FE0EDBCF13F01250105C135011586B
:100040001AE2020EDB6A030EDB6A020EDBCF10F04F
:10005000030EDBCF11F0330E105C360E115806E2A2
:10006000020EDB2A030E01E3DB2AEFD7DF2A010EA3
:1000700001E3DB2AD7D7040EE15C02E2E16AE55234
:10008000E16EE552E7CFD9FF1200D9CFE6FFE1CF0D
:10009000D9FF040EE126DE6ADD6ADECF10F0DDCF87
:1000A00011F0FD0EDBCF12F0FE0EDBCF13F012507D
:1000B000105C135011581AE2020EDB6A030EDB6A61
:1000C000020EDBCF10F0030EDBCF11F00C0E105C34
:1000D000000E115806E2020EDB2A030E01E3DB2AB2
:1000E000EFD7DF2A010E01E3DB2AD7D7040EE15C4C
:1000F00002E2E16AE552E16EE552E7CFD9FF120074
:10010000800E946EC00E926E958095829584440EFA
:10011000D36E12000001946B956B966B976B8AC03F
:100120008BFF3F0E896E8C8812000001962B3C0ECF
:10013000965D0BE1966B952B3C0E955D06E1956BFC
:10014000942B180E945D01E1946B1200D9CFE6FF59
:10015000E1CFD9FF090EE126200EF36E020EF3CF98
:10016000DBFF0A0E106E10C00CF096C007F06FECAB
:1001700002F007500A0DF3500001965DE76E030E82
:10018000E7CFDBFF0A0E106E10C00CF096C007F030
:100190006FEC02F0040E07C0DBFF0A0E106E10C0F9
:1001A0000CF095C007F06FEC02F007500A0DF35009
:1001B0000001955DE76E050EE7CFDBFF0A0E106EBE
:1001C00010C00CF095C007F06FEC02F0060E07C0EF
:1001D000DBFF0A0E106E10C00CF094C007F06FEC3D
:1001E00002F007500A0DF3500001945DE76E070E10
:1001F000E7CFDBFF0A0E106E10C00CF094C007F0C2
:100200006FEC02F0080E07C0DBFFDE6ADD6ADECFAE
:1002100010F0DDCF11F0060E105C000E115823E235
:10022000896AD950030F106EDACF11F0DE50102416
:10023000E96EDD501120EA6EEF50EA6A8A0FE96E2E
:10024000000EEA22EF508B6E020EDB50896E020E1A
:10025000DB407F0BE76E020EE7CFDBFFDF2A010EEC
:1002600001E3DB2AD4D7090EE15C02E2E16AE55240
:10027000E16EE552E7CFD9FF1200D9CFE6FFE1CF1B
:10028000D9FF020EE126DE6ADD6ADECF10F0DDCF97
:1002900011F01E0E105C010E115806E257DFDF2A26
:1002A000010E01E3DB2AF1D7020EE15C02E2E16A12
:1002B000E552E16EE552E7CFD9FF12000001942B21
:1002C000180E945D01E1946B94C097F01200000148
:1002D000952B3C0E955D01E1956B1200D9CFE6FFA1
:1002E000E1CFD9FF020EE12683B0FED72FDF83A036
:1002F00004D0020EE15C12E20FD083A205D0DEDF53
:1003000083A202D023DFFCD783A405D0E0DF83A43F
:1003100002D01CDFFCD7EAD7E16AE552E16EE55274
:10032000E7CFD9FF1200D9CFE6FFE1CFD9FF040E06
:10033000E126020EDB6A030EDB6A83A02BD0020EDD
:10034000DBCF10F0030EDBCF11F0020E105C000EBD
:10035000115820E2DE6ADD6ADECF10F0DDCF11F049
:10036000330E105C360E11580FE283B008D00A0E1F
:10037000F36E020EF3CFDBFF030EDB6A05D0DF2A3C
:10038000010E01E3DB2AE8D7020EDB2A030E01E3AC
:10039000DB2AD5D7D950020FE96EDACFEAFF020E79
:1003A000EE1801E1ED5002E1010E02D0000E00D086
:1003B000106E040EE15C02E2E16AE552E16E10505B
:1003C000E552E7CFD9FF120000019451975D02E09A
:1003D0008C9801D08C88120093DE9CDE94C097F03C
:1003E0004CDFA3DE81A007D0A0DE9FDE9EDE9DDE77
:1003F0009CDE9BDE9ADE97DF010801E16FDFE4DF20
:04040000EDD7120022
:0C040400060EF66E000EF76E000EF86E8D
:1004100000010900F550856F0900F550866F03E172
:10042000856701D03DD00900F550806F0900F55077
:10043000816F0900F550826F09000900F550E96EDF
:100440000900F550EA6E090009000900F550836FB4
:100450000900F550846F09000900F6CF87F0F7CF47
:1004600088F0F8CF89F080C0F6FF81C0F7FF82C026
:10047000F8FF0001835302E1845307E00900F550BF
:10048000EE6E8307F8E28407F9D787C0F6FF88C0CD
:10049000F7FF89C0F8FF00018507000E865BBFD714
:0204A000120048
:0E04A200000EF36E00EE00F0060E01D8120000
:1004B000EA6002D0EE6AFCD7F350E9601200EE6AFF
:0204C000FCD767
:0E04C20015EE00F025EE00F0F86A0F9C02EC3B
:0E04D00002F07DEC02F0ECEC01F0FBD7120024
:0204DE00036AAF
:1004E000080EE76ED890073603360C50035C02E323
:0A04F000036E072AE72EF7D712006B
:0204FA001200EE
:0404FC00014F120694
:060500004C24200F000452
:020000040030CA
:0100010008F6
:010003001EDE
:00000001FF
